:020000040800F2
:10000000900A002095140008CD010008CF010008D7
:10001000D3010008D7010008DB0100080000000040
:10002000000000000000000000000000DF010008E8
:10003000E101000800000000E3010008E5010008FC
:10004000AF140008AF140008AF140008AF14000884
:10005000AF140008AF140008AF140008AF14000874
:10006000AF140008AF140008AF140008AF14000864
:10007000AF140008AF140008AF140008AF14000854
:10008000AF140008AF140008AF140008AF14000844
:10009000AF140008AF140008AF140008AF14000834
:1000A000AF140008AF140008AF140008AF14000824
:1000B000AF140008AF140008AF140008AF14000814
:1000C000AF140008AF140008AF140008AF14000804
:1000D000AF14000809140008AF140008AF1400089A
:1000E000AF140008AF140008AF140008DFF80CD0FC
:1000F00002F07CFC0048004701010008900A002043
:1001000008B501F01DF901F0B1F800F05DF94FF408
:10011000E13001F02AF900F0F9FE01F033F8002196
:10012000084600F050FA00F07EFA00F066F964200C
:1001300001F0D9F80A231EA20021084600F04DFB69
:100140000A231EA20421002000F047FB2FE00A2111
:10015000012001F070F88146484602F0F5FA0546A4
:1001600003202A460B4600210090012000F0BCFB32
:10017000484602F0D3FA824602F02BFB07464FF0C6
:100180006632114B02F058FA054602F04DFB044668
:10019000204602F01EFB054603202A460B4600219E
:1001A0000090052000F0A0FBFA2001F09CF8CEE7BB
:1001B0004144435F305F56414C3A00004144435F45
:1001C000305F564F4C3A000066664A3F704700BFAA
:1001D000FEE700BFFEE700BFFEE700BFFEE7704797
:1001E00070477047704700000CB5002001900090E8
:1001F0006C48006840F480306A49086000BF694874
:10020000006800F4003000900198401C01900098B4
:1002100018B90198B0F5A06FF1D16248006800F4F8
:10022000003010B10120009001E000200090009803
:10023000012843D15C48006840F010005A4908602A
:100240000846006820F0030008600846006840F097
:1002500002000860534840685249486008464068B8
:1002600048600846406840F480604860084640683E
:1002700020F47C1048600846406840F4E81048606C
:100280000846006840F08070086000BF454800687C
:1002900000F000700028F9D04248406820F00300C8
:1002A000404948600846406840F00200486000BF8E
:1002B0003C48406800F00C000828F9D10CBD10B58E
:1002C000FFF792FF10BD10B53648006840F00100FE
:1002D000344908600846406834490840314948605C
:1002E00008460068324908402E4908600846006800
:1002F00020F4802008600846406820F4FE00486032
:100300004FF41F008860FFF7DAFF4FF000602949C3
:10031000086010BD10B5002100200022214B5B6851
:1003200003F00C0121B1042906D0082928D107E0E7
:10033000214B224C236027E01F4B204C236023E0FD
:10034000184B5B6803F47010164B5B6803F4803243
:10035000022303EB904022B9194B4343174C23600F
:100360000DE0104B5B6803F4003323B1144B43439F
:10037000124C236003E0104B4343104C236003E016
:100380000D4B0E4C236000BF00BF064B5B68C3F3F0
:1003900003130C4CE15C094B1B68CB40074C2360FA
:1003A00010BD000000100240002002400000FFF8D5
:1003B000FFFFF6FE08ED00E000127A0000000020CA
:1003C00000093D000400002008B50121102001F0C3
:1003D0008FFB4FF40050ADF8000010208DF80300A3
:1003E00003208DF8020069460B4801F0C5F84FF470
:1003F0000051094801F06FF908BD10B54FF40051E4
:10040000054801F068F910BD10B54FF400510248DD
:1004100001F05FF910BD000000100140002100E074
:10042000491C8142FCD3704710B54FF40061F84875
:1004300001F04FF94FF48061F54801F04AF94FF4AB
:100440008061F34801F047F94FF40061F04801F092
:1004500042F910BD10B54FF40061ED4801F039F9D3
:100460004FF48061EA4801F036F94FF48061E848C2
:1004700001F02FF910BD10B54FF40061E44801F010
:1004800028F94FF40061E24801F025F910BD2DE98B
:10049000F04105462C464FF40061DD4801F01BF9A0
:1004A00000261CE0274607F08007802F04D1F900C2
:1004B000D74801F00EF904E04FF48061D44801F010
:1004C0000AF96006040E4FF40061D14801F001F909
:1004D0004FF40061CE4801F0FEF8701CC6B2082E41
:1004E000E0DBBDE8F08110B50446FFF79DFF782002
:1004F000FFF7CDFFFFF7BFFF0020FFF7C8FFFFF7B3
:10050000BAFF2046FFF7C3FFFFF7B5FFFFF7A2FFD3
:1005100010BD10B50446FFF787FF7820FFF7B7FF3F
:10052000FFF7A9FF4020FFF7B2FFFFF7A4FF204627
:10053000FFF7ADFFFFF79FFFFFF78CFF10BD70B512
:1005400004460D461DB1E0B2FFF7E3FF02E0E0B262
:10055000FFF7C9FF70BD70B50646002418E004F12E
:10056000B0000021FFF7EBFF00210846FFF7E7FF8F
:1005700000211020FFF7E3FF002505E001213046B0
:10058000FFF7DDFF681CC5B2802DF7DB601CC4B22D
:10059000082CE4DB70BD06E041F6650100E0491E71
:1005A0000029FCD1401E0028F6D17047014605E025
:1005B000002001E0421CD0B27B28FBDB0A00A1F145
:1005C0000101F5D1704770B504460D4605F1B00044
:1005D0000021FFF7B4FF102141EA14100021FFF7BA
:1005E000AEFF04F00F000021FFF7A9FF70BD10B5AA
:1005F00000218D20FFF7A3FF00211420FFF79FFFAC
:100600000021AF20FFF79BFF10BD10B500218D200A
:10061000FFF795FF00211020FFF791FF0021AE208A
:10062000FFF78DFF10BD70B5002418E004F1B00095
:100630000021FFF784FF00210846FFF780FF00211B
:100640001020FFF77CFF002505E001210020FFF7C7
:1006500076FF681CC5B2802DF7DB601CC4B2082C85
:10066000E4DB70BD70B5002418E004F1B000002197
:10067000FFF765FF00210846FFF761FF002110200A
:10068000FFF75DFF002505E001210846FFF757FF52
:10069000681CC5B2802DF7DB601CC4B2082CE4DBFB
:1006A00070BD2DE9F04707460E4690469946002555
:1006B0000024A8F12000C5B27F2F02DD0027B01C66
:1006C000C6B2B9F1100F24D131463846FFF77BFF8F
:1006D000002408E004EB05114E4A505C0121FFF7AD
:1006E0002EFF601CC4B2082CF4DB701CC1B238466B
:1006F000FFF769FF002409E004EB05110831454AC2
:10070000505C0121FFF71BFF601CC4B2082CF3DB17
:1007100012E031463846FFF756FF00240AE005EBA9
:1007200045013D4A02EB4101085D0121FFF707FF4A
:10073000601CC4B2062CF2DBBDE8F08710B502469F
:10074000012000E050430B00A1F10104E1B2F9D116
:1007500010BD2DE9FF5F074691461E460E9D4FF0E6
:10076000000A002435E0301B401EC1B20A20FFF70A
:10077000E5FFB9FBF0F00A21B0FBF1F201FB120832
:10078000BAF1000F14D1701EA04211DDB8F1000FB4
:100790000CD1AB4605EBDB71491001FB0471C8B20B
:1007A0002B4620220199FFF77CFF10E04FF0010A51
:1007B000AB4605EBDB71491001FB0471C8B208F1CF
:1007C0003001CAB22B460199FFF76BFF00BF601CD6
:1007D000C4B2B442C7DBBDE8FF9F2DE9F041054636
:1007E0000E4614461F460EE022783B463146284608
:1007F000FFF757FF05F10800C5B2782D02DD00258F
:10080000B01CC6B2641C20780028EDD1BDE8F08190
:10081000000C0140AC2C0008842A00082DE9F041AE
:1008200080460F4615461E4639464046FFF7CBFE2A
:10083000002407E006EB4511085D0121FFF77FFE6C
:10084000601CC4B2102CF5DB781CC1B24046FFF727
:10085000BAFE002409E06900491C06EB0111085D9D
:100860000121FFF76CFE601CC4B2102CF3DBBDE865
:10087000F0812DE9F05F06460F4690461C46DDF8F4
:1008800028A04FF0000BE11704EB5171C910A4EB45
:10089000C10131B92046E11704EB5171C1F3C7051D
:1008A00006E02046E11704EB5171C910491CCDB296
:1008B0003D4615E029463046FFF785FEB1460BE080
:1008C00059460BF1010B1AF801000121FFF737FE21
:1008D00009F1010000F0FF09C145F1DB681CC5B258
:1008E000A542E7DBBDE8F09F2DE9FF5F86B0144627
:1008F0001D464FF0010A00200390049005904FF030
:100900000109002600BF83460022134620462946DF
:1009100001F072FF09D285F00040CDE90040204689
:10092000019901F01EFF064604E02046294601F029
:1009300018FF0646304601F0F6FE22462B46CDE96A
:10094000000101F076FE074688460022FE4B38463D
:10095000414601F071FECDE9000101F021FF83461F
:1009600007E009EB89004FEA40090AF1010000F0B5
:10097000FF0A0A2096FBF0F090FBF9F00028F0D176
:1009800042F2107096FBF0F00A2190FBF1F201FBAD
:100990001200C0B28DF80C004FF47A7096FBF0F0A4
:1009A00090FBF1F201FB1200C0B28DF80D00642043
:1009B00096FBF0F090FBF1F201FB1200C0B28DF853
:1009C0000E000A2096FBF0F090FBF1F201FB120002
:1009D000C0B28DF80F000A2096FBF0F100FB116009
:1009E000C0B28DF810002E208DF811004FF47A70EF
:1009F000BBFBF0F00A21B0FBF1F201FB12008DF815
:100A000012006420BBFBF0F0B0FBF1F201FB12001E
:100A10008DF813000A20BBFBF0F0B0FBF1F201FBF4
:100A200012008DF814000A20BBFBF0F100FB11B09E
:100A30008DF8150000211498801D03AA11548946D1
:100A400008E003A810F80900303003A901F80900F4
:100A500009F10109B9F10A0FF3DB00221346204620
:100A6000294601F0C9FE08D20AF1010000F0FF0A90
:100A70002D20CAF1050103AA50542E208DF8110033
:100A800000211498801D03AA1154CAF1050003A97E
:100A900042181023DDE90610FFF79FFE0AB0BDE8FB
:100AA000F09F2DE9F04F89B0824689461746984657
:100AB000DDF84CB0012007900020049005900690CE
:100AC0000124002500BF00264FEAC9604FEA1069E3
:100AD0003846414601F045FE0546284601F034FE01
:100AE0003A464346CDE9000101F0A3FDCDE90201FC
:100AF0000022954BDDE9020101F09EFDCDE90001E8
:100B000001F04EFE064606E004EB84004400079820
:100B1000401CC0B207900A20B5FBF0F0B0FBF4F027
:100B20000028F1D142F21070B5FBF0F00A21B0FBC1
:100B3000F1F201FB12008DF810004FF47A70B5FB52
:100B4000F0F0B0FBF1F201FB12008DF8110064200F
:100B5000B5FBF0F0B0FBF1F201FB12008DF81200D2
:100B60000A20B5FBF0F0B0FBF1F201FB12008DF8AA
:100B700013002E208DF815004FF47A70B6FBF0F0BC
:100B8000B0FBF1F201FB12008DF816006420B6FBF9
:100B9000F0F0B0FBF1F201FB12008DF817000A2013
:100BA000B6FBF0F0B0FBF1F201FB12008DF818007B
:100BB0000A20B6FBF0F100FB11608DF8190000214E
:100BC0000BF1060004AA1154002405E004A8005DFE
:100BD000303004A90855641C0A2CF7DB2E208DF850
:100BE000150000210BF1060004AA11541298C0F15F
:100BF000050004A942180C2351464846FFF7EDFDB5
:100C000009B0BDE8F08F2DE9F04105460F461646C4
:100C100000BF05EB45014906080E3946FFF7D3FC36
:100C200000240BE006F1100101EB4101474A02EB01
:100C30004101085D0121FFF782FC641C062CF1DBF9
:100C4000BDE8F0812DE9F04105460F46164600BF8C
:100C500005EB45014906080E3946FFF7B4FC0024B0
:100C600009E006EB4601394A02EB4101085D01212A
:100C7000FFF765FC641C062CF3DBBDE8F0812DE971
:100C8000F0470546894616463446002C22DA64426F
:100C9000642094FBF0F100FB11400A2190FBF1F07D
:100CA000C7B20A2094FBF0F100FB114000F0FF08EE
:100CB0000D2249462846FFF7C5FF691CC8B23A46CF
:100CC0004946FFF7A0FFA91CC8B242464946FFF7B4
:100CD0009AFF20E0642094FBF0F100FB11400A2110
:100CE00090FBF1F0C7B20A2094FBF0F100FB114039
:100CF00000F0FF080B2249462846FFF7A3FF691CB6
:100D0000C8B23A464946FFF77EFFA91CC8B2424620
:100D10004946FFF778FFBDE8F0872DE9F047054623
:100D20008A4616463446002C33DA64420D22514678
:100D30002846FFF787FF0A2094FBF0F100FB1140E3
:100D4000C7B20A2004E000000088C340842A0008DB
:100D500094FBF0F00A2190FBF1F201FB120000F08D
:100D6000FF08642094FBF0F000F0FF09E91CC8B212
:100D70003A465146FFF747FFA91CC8B242465146C2
:100D8000FFF741FF691CC8B24A465146FFF73BFFD7
:100D90002BE00B2251462846FFF754FF0A2094FB14
:100DA000F0F100FB1140C7B20A2094FBF0F00A21D9
:100DB00090FBF1F201FB120000F0FF08642094FBAD
:100DC000F0F000F0FF09E91CC8B23A465146FFF7BF
:100DD0001AFFA91CC8B242465146FFF714FF691C0E
:100DE000C8B24A465146FFF70EFFBDE8F0872DE92D
:100DF000F05F05468B4616463446002C00DA644206
:100E00004FF47A7094FBF0F0C7B24FF47A7094FB11
:100E1000F0F100FB1140642190FBF1F000F0FF08BD
:100E2000642094FBF0F100FB11400A2190FBF1F0EB
:100E300000F0FF090A2094FBF0F100FB114000F0E4
:100E4000FF0A3A4659462846FFF7DDFE691CC8B23C
:100E500042465946FFF7D7FEA91CC8B24A46594632
:100E6000FFF7D1FEE91CC8B252465946FFF7CBFE48
:100E7000BDE8F09F2DE9F05F05460E46144642F2AC
:100E80001070B4FBF0F0C7B242F21070B4FBF0F196
:100E900000FB11404FF47A71B0FBF1F000F0FF0855
:100EA0000846B4FBF0F100FB11406421B0FBF1F007
:100EB00000F0FF096420B4FBF0F100FB11400A21AF
:100EC000B0FBF1FA0A20B4FBF0F100FB114B3A46FB
:100ED00031462846FFF797FE691CC8B242463146A4
:100EE000FFF791FEA91CC8B24A463146FFF78BFEB8
:100EF000E91CC8B252463146FFF785FE291DC8B22B
:100F00005A463146FFF77FFEBDE8F09F08B5012144
:100F1000092000F0EDFD0121964800F0FEFB4FF4A2
:100F20004060ADF8000010208DF8030003208DF81C
:100F300002006946904800F01FFB4FF440618E4864
:100F400000F0C7FB44F62060FFF768FA0021AE20EE
:100F5000FFF7F5FA00210846FFF7F1FA002110200B
:100F6000FFF7EDFA00214020FFF7E9FA0021B02059
:100F7000FFF7E5FA00218120FFF7E1FA0021FF20C9
:100F8000FFF7DDFA0021A120FFF7D9FA0021A62002
:100F9000FFF7D5FA0021A820FFF7D1FA00213F2062
:100FA000FFF7CDFA0021C820FFF7C9FA0021D320AE
:100FB000FFF7C5FA00210846FFF7C1FA0021D52046
:100FC000FFF7BDFA00218020FFF7B9FA0021D820F1
:100FD000FFF7B5FA00210520FFF7B1FA0021D9206B
:100FE000FFF7ADFA0021F120FFF7A9FA0021DA207E
:100FF000FFF7A5FA00211220FFF7A1FA0021DB205C
:10100000FFF79DFA00213020FFF799FA00218D208B
:10101000FFF795FA00211420FFF791FA0021AF2085
:10102000FFF78DFA08BD10B5544B0022114614206D
:10103000FFF7F4FB514B012200212420FFF7EEFBC8
:101040004E4B022200213420FFF7E8FB4B4B0322DA
:1010500000214420FFF7E2FB484B042200215420EA
:10106000FFF7DCFB454B052202210020FFF7D6FBF2
:10107000424B062202211020FFF7D0FB10BD10B515
:101080003F4B002202211046FFF7C8FB4FF4FA60E5
:10109000FFF7C4F93A4B012202211020FFF7BEFBF3
:1010A0004FF4FA60FFF7BAF9354B022211462020BF
:1010B000FFF7B4FB4FF4FA60FFF7B0F9304B0322AF
:1010C00002213020FFF7AAFB4FF4FA60FFF7A6F9E0
:1010D0002B4B042202214020FFF7A0FB4FF4FA60C3
:1010E000FFF79CF9264B052202215020FFF796FBC3
:1010F0004FF4FA60FFF792F9214B062204210020F9
:10110000FFF78CFB4FF4FA60FFF788F91C4B0722BE
:1011100004211020FFF782FB4FF4FA60FFF77EF9FD
:10112000174B082204212020FFF778FB4FF4FA60C8
:10113000FFF774F9124B092204213020FFF76EFBF0
:101140004FF4FA60FFF76AF90D4B0A2204214020A0
:10115000FFF764FB4FF4FA60FFF760F9084B0B22CE
:1011600004215020FFF75AFB4FF4FA60FFF756F9BD
:1011700010BD000000023000000C0140940300206C
:101180001404002000B587B001214FF4017000F075
:10119000AFFC4FF4004000F00FFC0220ADF804005B
:1011A00000208DF8070001A92E4800F0E5F92E482F
:1011B00000F074FF002002908DF80C008DF80D00F7
:1011C0004FF4602004900020059001208DF8180055
:1011D00002A9254800F089FF0121234800F0B1FF52
:1011E000214800F0D0FF00BF1F4800F0D1FF0028C9
:1011F000FAD11D4800F0D6FF00BF1B4800F0D7FF12
:101200000028FAD107B000BD10B50446072301221B
:101210002146154801F001F80121134800F0D1FFE3
:1012200000BF0221104801F03DF90028F9D00E4816
:1012300001F05AF810BD2DE9F04107460C46002593
:10124000002608E03846FFF7DFFF0544052000F0E0
:101250004AF8701CC6B2A642F4DBB5FBF4F080B2CB
:10126000BDE8F081000801400024014010B56FF096
:10127000040000F0F4FE2E4800682E49B0FBF1F0A7
:101280002D4908700846007800EB4001C1EBC01002
:101290004FF6FF7101EAC0002849088010BD0146E1
:1012A000254A12784A434FF0E0235A6100229A619E
:1012B0001A46126942F001021A6100BF4FF0E022A3
:1012C000106900F001021AB100F48032002AF5D052
:1012D0004FF0E022126922F001024FF0E0231A6180
:1012E00000229A6170470146144A12884A434FF01F
:1012F000E0235A6100229A611A46126942F0010203
:101300001A6100BF4FF0E022106900F001021AB12B
:1013100000F48032002AF5D04FF0E022126922F06A
:1013200001024FF0E0231A6100229A617047000029
:101330000000002000127A00A4050020A60500206D
:1013400010B54FF4A06000F03BFE10BD014600BF99
:10135000704700BF4B4A128802F04002002AF9D0C1
:10136000C2B2484B1B1D1A80704710B586B00446A8
:10137000012144F2040000F0BBFB424800F01CFCD9
:101380004FF40070ADF8140003208DF816001820FB
:101390008DF8170005A93C4800F0EEF84FF4806086
:1013A000ADF8140004208DF8170005A9364800F0A8
:1013B000E3F825208DF8000003208DF801008DF85A
:1013C000020001208DF80300684600F0FEFD019444
:1013D0000020ADF80800ADF80A00ADF80C00ADF83B
:1013E00010000C20ADF80E0001A9264800F027FCE3
:1013F000012240F22551234800F0B9FC0121214887
:1014000000F0A9FC06B010BD10B540F225511D48F2
:1014100000F092FD10B31B4800F00EFDC4B21B4853
:10142000008800F40040C8B91848008800F48040E3
:1014300060B10A2C03D000201449088020E0134832
:10144000008840F400401149088019E00D2C06D1B5
:101450000E48008840F480400C49088010E00B489A
:101460000088C0F30D000A490C5408480088401C4D
:101470000649088008460088C72801DD002008804A
:1014800010BD00000038014000080140AC050020FC
:10149000C40500200648804706480047FEE7FEE7EF
:1014A000FEE7FEE7FEE7FEE7FEE7FEE7FEE7FEE714
:1014B000C7020008ED00000810B50446CC4884427D
:1014C00008D10121042000F02DFB0021042000F0B0
:1014D00029FB46E0C748844208D10121082000F0DA
:1014E00021FB0021082000F01DFB3AE0C2488442A5
:1014F00008D10121102000F015FB0021102000F080
:1015000011FB2EE0BD48844208D10121202000F0CB
:1015100009FB0021202000F005FB22E0B8488442AE
:1015200008D10121402000F0FDFA0021402000F008
:10153000F9FA16E0B348844208D10121802000F076
:10154000F1FA0021802000F0EDFA0AE0AE48844272
:1015500007D10121801500F0E5FA0021A01500F067
:10156000E1FA10BD10B50121084600F0DBFA0021B8
:10157000012000F0D7FA10BD2DE9F0410246002508
:101580000026002000230024002791F803C00CF05F
:101590000F0591F803C00CF0100CBCF1000F03D044
:1015A00091F802C04CEA050591F800C0BCF1000FAB
:1015B00031D0146800202BE04FF0010C0CFA00F33E
:1015C000B1F800C00CEA03069E4220D183004FF020
:1015D0000F0C0CFA03F7BC4305FA03FC4CEA0404B5
:1015E00091F803C0BCF1280F06D14FF0010C0CFAA2
:1015F00000FCC2F814C00AE091F803C0BCF1480F27
:1016000005D14FF0010C0CFA00FCC2F810C0401CD0
:101610000828D1D31460B1F800C0BCF1FF0F34DD4D
:10162000546800202EE000F1080C4FF0010808FA81
:101630000CF3B1F800C00CEA03069E4221D18300EE
:101640004FF00F0C0CFA03F7BC4305FA03FC4CEA0D
:10165000040491F803C0BCF1280F05D100F1080C77
:1016600008FA0CF8C2F8148091F803C0BCF1480FD6
:1016700007D100F1080C4FF0010808FA0CF8C2F885
:101680001080401C0828CED35460BDE8F0814FF68E
:10169000FF710180022181700421C17070470246F0
:1016A000002093680B400BB1012000E00020704740
:1016B0000146886880B2704702460020D3680B401C
:1016C0000BB1012000E0002070470146C86880B2DD
:1016D000704701617047416170470AB1016100E0E4
:1016E00041617047C16070474FF480320A438261A4
:1016F0008161826182698269704702460020434BA2
:1017000018684FF68073184040EA021008433F4BB8
:10171000186070473E49C8617047F0B50A4600231B
:1017200000240021002500F00046B6F1004F02D150
:10173000364EF16901E0354E7168C0F3034583B25E
:1017400000F44016B6F5401F08D121F070612F4E0D
:10175000766826F070662D4F7E6012E000F48016E9
:10176000B6F5801F06D1032606FA05F4A14341F021
:10177000706106E0460D360103FA06F6B14341F00A
:10178000706122B1460D360103FA06F6314300F0CE
:101790000046B6F1004F02D11C4EF16101E01B4E34
:1017A0007160F0BD30B500228B071C0F0F2303FAC8
:1017B00004F2164B08338C1053F824309343134C27
:1017C00008348D1044F8253023468C1053F824300B
:1017D0008C07240F00FA04F423430C4C08348D10BA
:1017E00044F8253030BD0A49DC31086070470000FC
:1017F00000080140000C01400010014000140140AD
:1018000000180140001C0140002001400000014080
:1018100000002042DF48006840F00100DD49086018
:1018200008464068DC490840DA49486008460068D4
:10183000DA490840D74908600846006820F480204B
:1018400008600846406820F4FE0048604FF41F001E
:1018500088607047CF49096821F48031CD4A116012
:101860001146096821F480211160B0F5803F03D052
:10187000B0F5802F0ED106E0C649096841F48031E9
:10188000C44A116007E0C349096841F4A021C14A74
:10189000116000E000BF00BF704710B50146002294
:1018A000002300204A11012A02D1BA4C236806E025
:1018B000022A02D1B74C236A01E0B64C636A01F0F8
:1018C0001F02012494401C400CB1012000E00020C4
:1018D00010BD38B5002000900024002500BF312045
:1018E000FFF7DBFF05460098401C00900098B0F51C
:1018F000A06F01D0002DF2D03120FFF7CEFF08B14C
:10190000012400E00024204638BD01460020A14A01
:10191000106820F0F80040EAC10010607047A0494C
:1019200008607047024600209A4B586820F47C10EB
:1019300042EA01031843974B58607047984908667C
:10194000704701460020934A506820F00300084386
:10195000506070478F48406800F00C0070470146A7
:1019600000208C4A506820F0F00008435060704717
:1019700001460020874A506820F4E0600843506028
:10198000704701460020834A506820F4605040EAC6
:10199000C1005060704729B17E4A527A02437D4BA4
:1019A0005A7204E07B4A527A82437A4B5A727047E9
:1019B0007B49D8310860704701460020754A50685D
:1019C00020F440400843506070470021714A2032A3
:1019D0001170704A82F82010012802D004280AD120
:1019E00004E001216B4A2032117005E00521694AAB
:1019F0002032117000E000BF00BF704769490860E5
:101A000070476449096A0143624A11627047654937
:101A100044390860704730B50021002200240023BB
:101A20005C4D6D6805F00C0121B1042905D0082931
:101A300023D105E05C4D056022E05B4D05601FE0B1
:101A4000544D6D6805F47012524D6D6805F4803484
:101A5000022505EB92421CB9544D554305600BE03D
:101A60004C4D6D6805F400351DB1504D5543056072
:101A700002E04D4D5543056002E04B4D056000BF4F
:101A800000BF444D6D6805F0F0010909484D6B5CDD
:101A90000568DD4045603F4D6D6805F4E061090A69
:101AA000434D6B5C4568DD4085603A4D6D6805F4DB
:101AB0006051C90A3E4D6B5C4568DD40C560354DDF
:101AC0006D6805F44041890B3A4D6B5CC568B5FB08
:101AD000F3F5056130BD29B12E4A526902432D4B01
:101AE0005A6104E02B4A526982432A4B5A6170477B
:101AF00029B1284A92690243264B9A6104E0254A9B
:101B000092698243234B9A61704729B1214AD26975
:101B10000243204BDA6104E01E4AD26982431D4B26
:101B2000DA61704729B11B4AD2680243194BDA6067
:101B300004E0184AD2688243164BDA60704729B134
:101B4000144A12690243134B1A6104E0114A1269E4
:101B50008243104B1A617047124940390860704740
:101B60000F49C86470470B49C87170470948406AFB
:101B700040F0807007494862704701460020054ADE
:101B800092680A400AB1012000E000207047014934
:101B900088727047001002400000FFF8FFFFF6FE59
:101BA000000042428004424200127A0000093D00D7
:101BB000AE050020BE05002010B50446FB48844257
:101BC00009D101218803FFF7ADFF00214FF48040C8
:101BD000FFF7A8FF32E0F648844209D1012148040A
:101BE000FFF7ADFF00214FF40030FFF7A8FF25E01D
:101BF000F048844209D101218804FFF7A0FF0021A9
:101C00004FF48020FFF79BFF18E0EB48844209D196
:101C10000121C804FFF793FF00214FF40020FFF7D4
:101C20008EFF0BE0E548844208D101210805FFF74B
:101C300086FF00214FF48010FFF781FF10BD2DE9D2
:101C4000F04786B005460E460024A24600BFA146D6
:101C50000027B08900B100BF2F462C8A4CF6FF70D8
:101C60000440F08804432C82AC894EF6F310044003
:101C7000B08831890843718908430443AC81AC8A38
:101C80004FF6FF400440B0890443AC8201A8FFF73F
:101C9000C2FEC648874202D1DDF810A001E0DDF89F
:101CA0000CA0A88900F4004040B10AEBCA0000EB88
:101CB0000A1031684900B0FBF1F807E00AEBCA00EE
:101CC00000EB0A1031688900B0FBF1F86420B8FB22
:101CD000F0F004012009642101FB1089A88900F4B7
:101CE000004040B1322000EBC900B0FBF1F000F041
:101CF0000700044308E0322000EB09106421B0FB28
:101D0000F1F000F00F0004432C8106B0BDE8F0872D
:101D10004FF41651016000218180C18001810C21A6
:101D2000418100218181704710B502460020108A50
:101D30004FF2FF0318400B884C8823438C882343C1
:101D4000CC8823431843108210BD002101804180BC
:101D50008180C180704721B1828942F40052828122
:101D600004E082894DF6FF731A4082817047F0B516
:101D70000346002400260025002040F66A17B942D9
:101D800000D100BF1846C1F3421401F01F0601271D
:101D900007FA06F5012C01D10C3004E0022C01D128
:101DA000103000E014301AB107682F43076002E0DA
:101DB0000768AF430760F0BD1AB1838A0B43838283
:101DC00002E0838A8B4383827047028A4FF6F07366
:101DD0001A400282028A0A430282704782894FF2C5
:101DE000FF731A40828182890A438281704721B140
:101DF000828942F00202828104E082894FF6FD73FB
:101E00001A4082817047028A4FF6DF731A400282BD
:101E1000028A0A430282704721B1028A42F4804258
:101E2000028204E0028A4BF6FF731A400282704776
:101E3000C1F308028280704701468888C0F3080019
:101E40007047818941F0010181817047028BD2B2D4
:101E50000283028B42EA012202837047028B02F462
:101E60007F420283028B0A430283704721B1828A38
:101E700042F02002828204E0828A4FF6DF731A4029
:101E80008282704721B1828A42F01002828204E08D
:101E9000828A4FF6EF731A408282704721B1828A9C
:101EA00042F00802828204E0828A4FF6F7731A40F9
:101EB0008282704721B1828942F40042828103E02C
:101EC0008289C2F30E028281704721B1828A42F474
:101ED0000062828204E0828A4FF2FF731A4082829B
:101EE0007047828A4FF6FB731A408282828A0A43C5
:101EF0008282704721B1828A42F00202828204E02B
:101F0000828A4FF6FD731A40828270470246002093
:101F1000B1F5007F00D100BF13880B400BB1012049
:101F200000E00020704701F40072B2F5007F00D19C
:101F300000BFCA430280704770B5024600240023E8
:101F40000025002040F66A16B14200D100BFC1F35F
:101F5000421501F01F03012606FA03F3012D02D1F9
:101F60009689334006E0022D02D1168A334001E003
:101F7000968A33400C12012606FA04F4168834407F
:101F800013B10CB1012000E0002070BD10B500229B
:101F9000002340F66A14A14200D100BF0A120124B6
:101FA0009440A3B2DC43048010BD0000003801401F
:101FB0000044004000480040004C004000500040F9
:101FC00031490143314A1160704770B50021002347
:101FD0000F22C47804B32D4C246804F4E064C4F5E3
:101FE000E064210AC1F10403CA40447804FA03F111
:101FF0008478144021430901254C0678A1550478C2
:1020000004F01F050124AC4005786D11AD0005F109
:10201000E025C5F8004109E0047804F01F0501241B
:10202000AC401C4D0678761145F8264070BD1A4A22
:102030000A400243154B1B1F1A60704739B1134AFF
:10204000121D12680243114B1B1D1A6006E00F4A55
:10205000121D126882430D4B1B1D1A607047042825
:1020600008D14FF0E021096941F004014FF0E0226E
:10207000116107E04FF0E021096921F004014FF000
:10208000E0221161704700000000FA050CED00E04D
:1020900000E400E080E100E080FFFF1F10B504468F
:1020A000FA48844208D101214015FFF73BFD002189
:1020B0006015FFF737FD17E0F548844208D101218C
:1020C0000015FFF72FFD00212015FFF72BFD0BE07A
:1020D000F048844208D10121C803FFF723FD002105
:1020E0004FF40040FFF71EFD10BD30B50246002042
:1020F00000235068E84C20400D790C6844EA052420
:10210000204350609068E54C2040D1E902542C43B4
:102110004D7944EA450420439060D06A20F4700071
:102120000C7C641EE4B2234340EA0350D06230BD0D
:1021300000210160017141718160C1600121017460
:10214000704721B1826842F00102826003E0826838
:1021500022F001028260704721B1826842F48072ED
:10216000826003E0826822F480728260704710B55A
:102170000023CBB21AB144681C43446002E04468B7
:102180009C43446010BD816841F008018160704744
:10219000014600208A6802F008020AB1012000E02E
:1021A00000207047816841F004018160704701465A
:1021B00000208A6802F004020AB1012000E0002039
:1021C000704721B1826842F4A002826003E0826815
:1021D00022F4A00282607047014600208A6802F45F
:1021E00080020AB1012000E00020704710B50A46C5
:1021F00000210023416821F46041531E41EA43312C
:10220000416010BD21B1426842F40062426003E0C7
:10221000426822F4006242607047F0B504460D4601
:1022200000200021092D11DDE068A5F10A0606EB6A
:102230004607072606FA07F18843A5F10A0606EBCA
:10224000460603FA06F10843E0600CE0206905EB5E
:102250004507072606FA07F1884305EB450603FA0A
:1022600006F108432061072A0FDA606B561E06EB61
:1022700086071F2606FA07F18843561E06EB8606D8
:1022800005FA06F10843606322E00D2A0FDA206B9D
:10229000D61F06EB86071F2606FA07F18843D61FCE
:1022A00006EB860605FA06F10843206310E0E06AB3
:1022B000A2F10D0606EB86071F2606FA07F18843F2
:1022C000A2F10D0606EB860605FA06F10843E06268
:1022D000F0BD21B1826842F48012826003E082681E
:1022E00022F48012826070470146C86C80B2704749
:1022F00066484C300068704721B1426842F4806201
:10230000426003E0426822F480624260704721B17B
:10231000426842F48052426003E0426822F48052F4
:10232000426070470A460021816821F4E041114370
:102330008160704721B1826842F40042826003E00C
:10234000826822F400428260704721B1826842F4C0
:102350000212826003E0826822F4021282607047F7
:10236000014600208A6802F400120AB1012000E050
:1023700000207047F0B504461546002000220026D4
:10238000092911DDE068A1F10A0707EB470C0727CF
:1023900007FA0CF29043A1F10A0707EB470703FA8B
:1023A00007F21043E0600CE0206901EB410C0727C5
:1023B00007FA0CF2904301EB410703FA07F21043CE
:1023C0002061A06BC0F30156EF1C06F1010CA7EBD6
:1023D0000C0707EB870C1F2707FA0CF29043EF1C42
:1023E00006F1010CA7EB0C0707EB870701FA07F2D0
:1023F0001043A063F0BD10B50A4600210023816B95
:1024000021F44011531E41EA0351816310BD08B508
:10241000002300930090009B0B440093009B1A60E4
:1024200008BD08B5024600200090009201F1280086
:10243000009B184400900098006880B208BD0A46CE
:1024400000214168164B19401143416070474162B9
:10245000826270470A460021416821F01F01114342
:102460004160704740B109490831096841F40001F1
:10247000064A0832116007E004490831096821F46E
:102480000001024A08321160704700000024014038
:1024900000280140003C0140FFFEF0FFFDF7F1FF86
:1024A000FFFD3FFF0246002013680B400BB10120E7
:1024B00000E000207047CA430260704770B50246D2
:1024C0000020002300240B125568CEB205EA060452
:1024D00015681D4015B10CB1012000E0002070BD51
:1024E00000220A12D343036070472DE9FE4F804655
:1024F00081EA0300C00F0C46009021F0004123F058
:102500000045B8EB0200A94105D24046214690465D
:102510001C460B46024623F00040104347D0270DCF
:10252000C7F30A00C3F30A510290401A01904028F1
:102530006BDAC3F3130040F4801B0098924620B17D
:102540000023D2EB030A63EB0B0B01985946C0F151
:102550004002504600F084F906460D465046594662
:10256000019A00F09CF910EB08006141002487EA11
:10257000115284EAE7731A4340D0009A62B3019A79
:10258000012A4FEA075215DC001B61EB02014FF0F4
:10259000004202EA0752CDE90042001C41F58011D9
:1025A00032462B4600F0D3F903B0BDE8F08F404629
:1025B0002146F9E7001B61EB0201001C41F5801385
:1025C00000185B412018A2F5001747EB030140EA11
:1025D000D570B6196D4111E06D084FEA360645EA2F
:1025E000C0754FEA0752001B61EB0201001C41F568
:1025F000801149084FEA30000019514132462B46FC
:1026000003B0BDE8F04F00F093B9009801224000FC
:102610000023D0EB020263EBE073009821464FEAFF
:10262000E074B8EB000061EB0401E9E783F00043DC
:102630005BE781F0004158E72DE9FE4F81EA030492
:1026400004F0004421F0004100944FF0000B23F00F
:10265000004350EA01045ED052EA03045BD0C3F3A6
:102660000A54C1F30A552C44A4F2F3340194A0FB9C
:102670000254C1F3130141F48011C3F3130343F473
:10268000801301FB024400FB034E840A970A44EACC
:10269000815447EA8357A4FB076802958D0A05FB1E
:1026A00007854FEA932C04FB0C542705029D4FEA43
:1026B000065847EA1637B5EB08056EEB070C870E90
:1026C000920E47EA811742EA8312A7FB0201B6EB9A
:1026D0000B0164EB00042B0D43EA0C335E1844EB52
:1026E0001C50DA465146E7FB0201C5F313044FEADA
:1026F0000B3343EA14534FEA0432019C43EA0603C6
:10270000A4F10C040294009CCDE900B400F01FF980
:1027100003B0BDE8F08F00200146F9E796230022C0
:10272000114600F0D7B80EB5C10F80EAE07008443A
:10273000CA07002140F233438DE80E000A460B46DB
:1027400000F005F903B000BD0EB540F2334102912F
:102750000021CDE900110A460B4600F0F8F803B05D
:1027600000BD70B5C1F30A5201F000450024C1F369
:10277000130140F2FF3341F480119A4201DA002044
:1027800070BD40F233439A42A2F2334203DC52421C
:1027900000F075F800E090402C43F1D0404270BD4D
:1027A000C1F30A5210B5C1F3130140F2FF3341F4F3
:1027B00080119A4201DA002010BD40F233439A4260
:1027C000A2F2334203DC524200F059F810BD9040AF
:1027D00010BD00F0004230F000400AD0C10D01F5FC
:1027E0006071C0F3160042EA0151C208400711436C
:1027F000704700200146704730B5041E71F1000497
:1028000004DB4FF00044404264EB0101141E73F1FD
:10281000000405DB1C464FF00043524263EB040307
:102820008B4208BF824230BD01F0004330B421F03A
:10283000004150EA010206D00A0DA2F56072C1F310
:102840001301002A02DC30BC00207047440F44EA28
:10285000C104C100E01830BC00EBC25000F031B838
:10286000202A04DB203A00FA02F100207047914050
:10287000C2F1200320FA03F3194390407047202A45
:1028800004DB203A21FA02F00021704721FA02F31A
:10289000D040C2F120029140084319467047202AD7
:1028A00006DBCB17203A41FA02F043EAE07306E078
:1028B00041FA02F3D040C2F1200291400843194688
:1028C00070470029A8BF7047401C490008BF20F08E
:1028D0000100704710B4B0FA80FC00FA0CF050EA26
:1028E000010404BF10BC704749B1CCF1200421FAA7
:1028F00004F411FA0CF118BF012121430843A3EBA2
:102900000C01CB1D4FEA00614FEA102042BF0020AE
:1029100010BC704700EBC35010440029A4BF10BC8A
:102920007047401C490008BF20F0010010BC7047F0
:1029300010B5141E73F1000408DA401C41F10001C7
:1029400092185B411A4301D120F0010010BD2DE91E
:10295000F04D92469B4611B1B1FA81F202E0B0FA15
:1029600080F220329046FFF77BFF04460F4640EA94
:102970000A0041EA0B0153465A46084313D0114658
:1029800053EA010019D0C8F140025046FFF777FF23
:1029900005460E46504659464246FFF761FF08433A
:1029A00005D0012004E020463946BDE8F08D002026
:1029B000054346EAE0762C4337430A986305E40A68
:1029C000A0EB08000022FD0A44EA47540A3002D571
:1029D00000200146E9E7010510196941DDE90845D4
:1029E00000196941BDE8F04DA2E70000064C074D13
:1029F00006E0E06840F0010394E8070098471034CF
:102A0000AC42F6D3FDF776FB9C320008BC320008DE
:102A100070B58C1810F8015B15F0070301D110F8A0
:102A2000013B2A1106D110F8012B03E010F8016BCD
:102A300001F8016B5B1EF9D12B0705D40023521E50
:102A40000DD401F8013BFAE710F8013BCB1A921CB8
:102A500003E013F8015B01F8015B521EF9D5A142B6
:102A6000D8D3002070BD02E008C8121F08C1002A98
:102A7000FAD170477047002001E001C1121F002AFF
:102A8000FBD170470000000000000000002F000094
:102A900000000700070000147F147F1400242A7F21
:102AA0002A120062640813230036495522500000A0
:102AB0000503000000001C224100000041221C0010
:102AC0000014083E08140008083E0808000000A092
:102AD000600000080808080800006060000000208E
:102AE00010080402003E5149453E0000427F40006C
:102AF000004261514946002141454B3100181412F2
:102B00007F10002745454539003C4A4949300001BE
:102B10007109050300364949493600064949291E0D
:102B2000000036360000000056360000000814226F
:102B3000410000141414141400004122140800026F
:102B40000151090600324959513E007C1211127C94
:102B5000007F49494936003E41414122007F4141C1
:102B6000221C007F49494941007F09090901003EB3
:102B70004149497A007F0808087F0000417F4100F1
:102B8000002040413F01007F08142241007F404067
:102B90004040007F020C027F007F0408107F003E4F
:102BA0004141413E007F09090906003E4151215E35
:102BB000007F091929460046494949310001017F32
:102BC0000101003F4040403F001F2040201F003FC8
:102BD0004038403F0063140814630007087008077A
:102BE00000615149454300007F41410000552A558D
:102BF0002A55000041417F00000402010204004008
:102C00004040404000000102040000205454547829
:102C1000007F484444380038444444200038444449
:102C2000487F00385454541800087E0901020018E7
:102C3000A4A4A47C007F080404780000447D400024
:102C4000004080847D00007F102844000000417F08
:102C50004000007C04180478007C080404780038E4
:102C60004444443800FC242424180018242418FC6C
:102C7000007C0804040800485454542000043F44D5
:102C80004020003C4040207C001C2040201C003C98
:102C90004030403C004428102844001CA0A0A07CE8
:102CA000004464544C441414141414140000000020
:102CB000000000000000000000000000000000F81C
:102CC00000000000000000333000000000100C067F
:102CD000100C0600000000000000000040C078401A
:102CE000C0784000043F04043F040400007088FCE6
:102CF00008300000001820FF211E0000F008F0003E
:102D0000E018000000211C031E211E0000F00888AE
:102D1000700000001E2123241927211010160E0018
:102D2000000000000000000000000000000000E0C3
:102D300018040200000000071820400000020418D8
:102D4000E00000000040201807000000404080F034
:102D5000804040000202010F01020200000000F06A
:102D6000000000000101011F01010100000000003E
:102D70000000000080B070000000000000000000B3
:102D8000000000000001010101010101000000003C
:102D900000000000003030000000000000000000D3
:102DA00080601804006018060100000000E01008B0
:102DB0000810E000000F102020100F00001010F885
:102DC000000000000020203F2020000000700808C4
:102DD0000888700000302824222130000030088844
:102DE000884830000018202020110E000000C0206C
:102DF00010F8000000070424243F240000F808888D
:102E0000880808000019212020110E0000E0108819
:102E100088180000000F112020110E00003808084B
:102E2000C83808000000003F00000000007088085B
:102E300008887000001C222121221C0000E01008DC
:102E40000810E0000000312222110F00000000C035
:102E5000C0000000000000303000000000000080D2
:102E600000000000000080600000000000008040C2
:102E700020100800000102040810200040404040DB
:102E8000404040000404040404040400000810202E
:102E90004080000000201008040201000070480873
:102EA0000808F0000000003036010000C030C828DB
:102EB000E810E0000718272423140B000000C03896
:102EC000E0000000203C23020227382008F8888810
:102ED00088700000203F202020110E00C03008081C
:102EE00008083800071820202010080008F80808F3
:102EF0000810E000203F202020100F0008F88888EC
:102F0000E8081000203F20202320180008F88888B7
:102F1000E8081000203F200003000000C03008082F
:102F20000838000007182020221E020008F80800B8
:102F30000008F808203F210101213F20000808F87F
:102F4000080800000020203F2020000000000808A2
:102F5000F8080800C08080807F00000008F888C062
:102F600028180800203F20012638200008F8080013
:102F700000000000203F20202020300008F8F8004A
:102F8000F8F80800203F003F003F200008F830C05C
:102F90000008F808203F200007183F00E01008084C
:102FA0000810E0000F10202020100F0008F808087B
:102FB0000808F000203F210101010000E01008088E
:102FC0000810E0000F18242438504F0008F88888B3
:102FD00088887000203F2000030C30200070880893
:102FE000080838000038202121221C00180808F8A1
:102FF000080818000000203F2000000008F8080022
:103000000008F808001F202020201F0008788800F2
:1030100000C83808000007380E010000F80800F862
:103020000008F800033C0700073C0300081868800C
:103030008068180820302C03032C30200838C80082
:10304000C83808000000203F2000000010080808D1
:10305000C83808002038262120201800000000FE73
:10306000020202000000007F40404000000C30C01F
:1030700000000000000000010638C000000202024B
:10308000FE000000004040407F00000000000402FD
:103090000202040000000000000000000000000028
:1030A0000000000080808080808080800002020418
:1030B0000000000000000000000000000000808010
:1030C000808000000019242222223F2008F800807E
:1030D00080000000003F112020110E000000008041
:1030E00080800000000E11202020110000000080D0
:1030F0008088F800000E112020103F200000808002
:1031000080800000001F222222221300008080F015
:10311000888888180020203F202000000000808040
:1031200080808000006B94949493600008F8008085
:1031300080800000203F210000203F2000809898E0
:10314000000000000020203F202000000000008040
:103150009898000000C08080807F000008F8000080
:1031600080808000203F24022D302000000808F8D5
:10317000000000000020203F202000008080808090
:1031800080808000203F20003F20003F8080008022
:1031900080800000203F210000203F200000808030
:1031A00080800000001F202020201F0080800080E1
:1031B0008000000080FFA12020110E000000008090
:1031C00080808000000E112020A0FF808080800081
:1031D0008080800020203F212000010000008080AE
:1031E000808080000033242424241900008080E0A3
:1031F000808000000000001F202000008080000070
:1032000000808000001F202020103F208080800050
:103210000080808000010E30080601008080008060
:10322000008080800F300C030C300F000080800085
:10323000808080000020312E0E31200080808000B0
:103240000080808080818E70180601000080808060
:10325000808080000021302C2221300000000000FE
:10326000807C020200000000003F4040000000009F
:10327000FF00000000000000FF0000000002027CD0
:10328000800000000040403F0000000000060101F7
:10329000020204040000000000000000BC3200082C
:1032A00000000020C4050000102A0008A83500080E
:1032B000C4050020CC040000762A00081184A24A2C
:1032C00004200901020304060708091BF010012A63
:1032D000FF050215F01B0F04012AFF0502130F184A
:1032E000094040405F55555575041A5F0C0911217E
:1032F000080C11200F094989790909090F201F11AC
:103300002FFE02424ACA4A0304134202FE000E1470
:10331000FF40504C4340404F50505C40FF1BF888EA
:10332000012AFF050215F81B1F08012A7F200B1038
:103330009F80E23B808201000916E2A2928A868287
:103340008080041840807F172424A4FEA3221B221F
:10335000CCAA011415080601FF2B0104010511FF79
:103360000202025808101010FF109008C302110842
:10337000080F100444827F01808040432C102846AF
:1033800081A018094040484848C8784F06051548AC
:103390004840400009150312122222528A063C10AE
:1033A0006080BA19040B11C030FB1E404043407FBF
:1033B000061C7F424106094FC02941080B1110D05D
:1033C00030FF30D0121C10101F3D080402019E0D6A
:1033D0001101020408211116FE222222FE0712FE0C
:1033E000828292A29E100880601F0242827F0F118B
:1033F000FF402F102C438011000B1490884C57A4D1
:103400002454548C84180801018042221A07441D58
:10341000423E01018AF9E1000D14E4242CB4252672
:1034200024B42C24E404180AFF02011E1212121EF6
:10343000418601121010403C10FF101040484848CF
:103440007F48C848401D020602FF671C020A12B6E8
:10345000130202500E2010E824272424E424342CE4
:1034600020E01B3F42013A4305434078291732FFD1
:103470001B2040DF1C080403554A806B13010E1605
:103480008484FC84841AF821490A100A10301F0829
:1034900088422118072620203F20201C02EAAA018A
:1034A0002AAF051BEA020F2E02FA4A4B4A011C4BB7
:1034B0004AFA80195F180B9C848484F48282838288
:1034C000806019913B08066025020408301F04043F
:1034D0000484E43CA219A4190C11140402011BFF7A
:1034E00009013B498984380D80402090888680807E
:1034F00080838C10A11911197D654080403F180C04
:1035000004047454545556545454743F112C0808F0
:10351000083C1D7D0D0B090B021308E358381D10E4
:103520001010FF04390529501D844424178A1E04F5
:103530001724448451111AFC9B2DFC2526240812C3
:1035400004180D40308F80844C55252525554C9608
:10355000414BFE820172FE4BFF400172FF5BFE2277
:103560000129213E8040300F02012B4282E11944A3
:10357000580A80FF8080A090888482501941000AF8
:10358000132112040810202040400512182424188A
:1035900029482901E12D0102030404200906070836
:0835A000090204060800000006
:04000005080000ED02
:00000001FF
