:020000040800F2
:10000000F80A0020614D00089505000897050008D2
:100010009B0500089F050008A305000800000000DC
:10002000000000000000000000000000A70500081C
:10003000A905000800000000AB050008AD05000898
:100040007B4D00087B4D00087B4D00087B4D000870
:100050007B4D00087B4D00087B4D00087B4D000860
:100060007B4D00087B4D00087B4D00087B4D000850
:100070007B4D00087B4D00087B4D00087B4D000840
:100080007B4D00087B4D00087B4D00087B4D000830
:100090007B4D00087B4D00087B4D00087B4D000820
:1000A0007B4D00087B4D00087B4D00087B4D000810
:1000B0007B4D00087B4D00087B4D00087B4D000800
:1000C0007B4D00087B4D00087B4D00087B4D0008F0
:1000D0007B4D0008D54C00087B4D00087B4D000887
:1000E0007B4D00087B4D00087B4D0008DFF80CD0ED
:1000F00006F0D4F800480047C1020008F80A0020C2
:1001000010B5044600BF4021FE4805F065FB0028FD
:10011000F9D02146FB4805F0F1FA10BDF0B589B0E1
:1001200006460F4615461C2D01DD09B0F0BD002125
:1001300001AAE81C115488208DF804008DF8056090
:100140008DF80650002405E0395DE01C01AA115429
:10015000601CC4B2AC42F7DB00240AE001A9E81C31
:10016000085C095D0844C1B201AAE81C1154601C76
:10017000C4B2E81C8442F1DB002405E001A9085D5B
:10018000FFF7BEFF601CC4B2281D8442F6DB00BF2F
:10019000CBE72DE9FE4304460D4617461E46DDE932
:1001A0000A89200A8DF80000E0B28DF80100280AC3
:1001B0008DF80200E8B28DF80300380A8DF80400CB
:1001C000F8B28DF80500300A8DF80600F0B28DF80F
:1001D00007004FEA18208DF8080008F0FF008DF89E
:1001E00009004FEA19208DF80A0009F0FF008DF888
:1001F0000B000C226946A120FFF790FFBDE8FE83AB
:100200002DE9F04F87B004460D4616461F46DDE93E
:1002100011ABDDF840904FF0000806E000200DF82B
:10022000080008F1010000F0FF08B8F11C0FF5DB31
:10023000200A8DF80000E0B28DF80100280A8DF840
:100240000200E8B28DF80300300A8DF80400F0B225
:100250008DF80500380A8DF80600F8B28DF8070011
:100260004FEA19208DF8080009F0FF008DF8090009
:100270004FEA1A208DF80A000AF0FF008DF80B00F3
:100280004FEA1B208DF812000BF0FF008DF81300D1
:100290001398000A8DF814001398C0B28DF8150059
:1002A0001498000A8DF816001498C0B28DF8170043
:1002B0001C226946AF20FFF731FF07B0BDE8F08F81
:1002C00086B000F065FA04F03DFC04F001FB8E48B6
:1002D00004F0B1FC01208D4908704FF4A06005F0D6
:1002E000D5FA00F008FB03F07FFE08E00C2388A29B
:1002F0000021084603F052FF322004F060FC02F0B7
:100300005FFD0028F2D10C2383A20021084603F0F0
:1003100045FF39E1814A8249824802F09EFD00286A
:10032000F7D100F07CFB80490880804A80498148F1
:1003300000F0C8FB804A8149814800F09BFB73486C
:100340000078A8B17C48B0F900007C49B1F90010F0
:10035000CDE900107A48B0F900307448B0F90020B7
:100360007348B0F900107348B0F90000FFF711FFAF
:100370006648007898B373496848006805F09CFBAC
:10038000074605F0BDFD04B26F496648006805F0F8
:1003900093FB074605F0B4FD05B26B496048006861
:1003A00005F08AFB074605F0ABFD06B26248B0F9DE
:1003B0000000CDE90265049401906048B0F90000A6
:1003C00000905F48B0F900305848B0F90020584814
:1003D000B0F900105748B0F90000FFF711FF52487C
:1003E000B0F9000000280CDA06232D22002108466F
:1003F00003F038FE4C480088404200B24A49088069
:1004000005E0062320220021084603F02BFE464883
:10041000B0F90000642190FBF1F422460021042091
:1004200004F0C7F947493F48006805F045FB04461A
:1004300005F066FD00B23C4908800846B0F90000AE
:1004400000280CDA06232D220021084603F00AFEBC
:1004500035480088404200B23349088005E0062351
:1004600020220021084603F0FDFD2F48B0F90000CE
:100470000A2190FBF1F422460021042004F099F9AE
:1004800030492748006805F017FB044605F038FDA1
:1004900000B2254908800846B0F9000000280CDAAF
:1004A00006232D220221002003F0DCFD1E480088D7
:1004B000404200B21C49088005E0062320220221A8
:1004C000002003F0CFFD1848B0F900000A2190FB8E
:1004D000F1F422460221042004F06BF919490F4877
:1004E000006805F0E9FA044605F00AFD00B20E497D
:1004F00008800846B0F90000002831DA06232D22D2
:10050000042123E00038014020A107000100002061
:100510004572726F720000004F4B00000C0000200B
:1005200008000020040000201C000020140000200F
:1005300012000020100000201A00002018000020E7
:1005400016000020000020410000C842002003F0F7
:1005500089FD0E480088404200B20C49088005E041
:10056000062320220421002003F07CFD0748B0F977
:1005700000000A2190FBF1F422460421084604F011
:1005800018F9002002490870C4E600001C00002091
:1005900000000020704700BFFEE700BFFEE700BF7D
:1005A000FEE700BFFEE770477047704770470000E6
:1005B0000CB50020019000906C48006840F4803039
:1005C0006A49086000BF6948006800F40030009084
:1005D0000198401C0190009818B90198B0F5A06FDF
:1005E000F1D16248006800F4003010B101200090A1
:1005F00001E0002000900098012843D15C48006889
:1006000040F010005A4908600846006820F00300D6
:1006100008600846006840F00200086053484068DF
:10062000524948600846406848600846406840F4BF
:10063000806048600846406820F47C1048600846A6
:10064000406840F4E81048600846006840F0807058
:10065000086000BF4548006800F000700028F9D02D
:100660004248406820F0030040494860084640681E
:1006700040F00200486000BF3C48406800F00C00B9
:100680000828F9D10CBD10B5FFF792FF10BD10B5C9
:100690003648006840F00100344908600846406868
:1006A00034490840314948600846006832490840EA
:1006B0002E4908600846006820F48020086008463B
:1006C000406820F4FE0048604FF41F008860FFF788
:1006D000DAFF4FF000602949086010BD10B5002115
:1006E00000200022214B5B6803F00C0121B104299A
:1006F00006D0082928D107E0214B224C236027E0AF
:100700001F4B204C236023E0184B5B6803F47010F0
:10071000164B5B6803F48032022303EB904022B94E
:10072000194B4343174C23600DE0104B5B6803F4F7
:10073000003323B1144B4343124C236003E0104BAE
:100740004343104C236003E00D4B0E4C236000BF6D
:1007500000BF064B5B68C3F303130C4CE15C094B11
:100760001B68CB40074C236010BD00000010024006
:10077000002002400000FFF8FFFFF6FE08ED00E059
:1007800000127A002000002000093D002400002013
:1007900008B50121102004F011FE4FF40050ADF80F
:1007A000000010208DF8030003208DF80200694638
:1007B0000B4804F047FB4FF40051094804F0F1FBEB
:1007C00008BD10B54FF40051054804F0EAFB10BD18
:1007D00010B54FF40051024804F0E1FB10BD0000D9
:1007E0000010014070B505460C4600F0EFF9D0202E
:1007F00000F0A0FA00F02BFA18B100F007FA01207F
:1008000070BD284600F096FA00F021FA204600F06C
:1008100091FA00F01CFA18B100F0F8F90120EFE7A6
:1008200000F0F4F90020EBE770B504460025BC2C7D
:1008300001DB012510E0622C01DB02250CE02A2CF3
:1008400001DB032508E0142C01DB042504E00A2C5D
:1008500001DB052500E0062529461A20FFF7C2FF27
:1008600070BD70B50446B4F57A7F01DD4FF47A743B
:10087000042C00DA04244FF47A7090FBF4F0401E4C
:10088000C5B229461920FFF7ADFF0546264604EB01
:10089000D671C1F34F00FFF7C7FF70BD70B50446B6
:1008A00000F094F9D02000F045FA00F0D0F920468D
:1008B00000F040FA00F0CBF900F088F9D12000F008
:1008C00039FA00F0C4F9002000F05FFA054600F0A4
:1008D0009DF9284670BD10B50446E006010E1C20A7
:1008E000FFF780FF10BD10B50446E006010E1B2087
:1008F000FFF778FF10BD38B50121084604F05EFD12
:100900000121042004F05AFD4FF40040ADF800002E
:1009100010208DF8030003208DF8020069469548E9
:1009200004F090FA0121944804F05DFB0020934903
:10093000086000F032F980216B20FFF753FF64203C
:1009400004F03DF900216B20FFF74CFF0320FFF777
:10095000CAFF0020FFF7BFFF3220FFF782FF002110
:100960003820FFF73FFF00216A20FFF73BFF0021FF
:100970002320FFF737FF80213720FFF733FF752053
:10098000FFF78CFF0446682C0BD101216B20FFF789
:1009900029FF00216C20FFF725FF3220FFF761FFC0
:1009A00001E0012038BD0020FCE72DE9F0410646BA
:1009B0000F4614461D4600F009F9002141EA4601A0
:1009C000C8B200F0B7F900F042F920B100F01EF90A
:1009D0000120BDE8F081384600F0ACF900F037F9AD
:1009E00000F0F4F8012101EB4601C8B200F0A2F9D1
:1009F00000F02DF90DE0012C04D1002000F0C5F924
:100A0000287003E0012000F0C0F92870601EC4B215
:100A10006D1C002CEFD100F0F9F80020D9E72DE98A
:100A2000F84F6B46022241216820FFF7BEFF9DF878
:100A300001009DF8001040EA01200FFA80FA5046AC
:100A400005F040FA804600224D4B05F0BEF90646FF
:100A50004C4A4D4B05F0A0F8044605F0E1FA8346F8
:100A60004A49584605F028F8044605F049FA00B20C
:100A7000BDE8F88F2DE9FC4104460D4616466B464D
:100A8000062243216820FFF790FF0746BFB99DF873
:100A900001009DF8001040EA012000B220809DF87E
:100AA00003009DF8021040EA012000B228809DF862
:100AB00005009DF8041040EA012000B2308038465D
:100AC000BDE8FC812DE9FC4104460D4616466B4607
:100AD00006223B216820FFF768FF0746BFB99DF853
:100AE00001009DF8001040EA012000B220809DF82E
:100AF00003009DF8021040EA012000B228809DF812
:100B000005009DF8041040EA012000B2308038460C
:100B1000BDE8FC812DE9F04105460E461746984692
:100B200000F054F8002141EA4501C8B200F002F992
:100B300000F08DF820B100F069F80120BDE8F081E7
:100B4000304600F0F7F800F082F800240CE018F8C6
:100B5000040000F0EFF800F07AF818B100F056F851
:100B60000120EBE7601CC4B2BC42F0DB00F04EF8A1
:100B70000020E3E70008014000023000BC012142F0
:100B800000407540A4703D0AD74342400000C8426F
:100B900010B5022003F0EFFF10BD08B501210820B9
:100BA00004F00CFC4FF44060ADF8000010208DF80C
:100BB000030003208DF8020069468D4804F042F9D5
:100BC0004FF440618A4804F0EAF908BD10B588483E
:100BD000001D006820F470408549091D0860084622
:100BE000006840F440500860012082490860824952
:100BF000C1F8A801FFF7CCFF00207E490860FFF78D
:100C0000C7FF00207C49C1F8A80110BD10B5784885
:100C1000001D006820F470407549091D08600846F1
:100C2000006840F44050086000207249091F0860C5
:100C30007149C1F8AC01FFF7ABFF01206D49091FF5
:100C400008606D49C1F8AC01FFF7A2FF10BD10B5F7
:100C500000246748001D006820F470406449091DA5
:100C600008600846006840F40040086001206149BF
:100C70000860FFF78DFF01205F49C1F8A801FFF769
:100C800087FF07E0601CC4B2FA2C03DDFFF7BEFF4C
:100C9000012010BD5748803800680028F2D155491E
:100CA000091F086000BFF4E710B500205149091F73
:100CB00008604F48001D006820F470404C49091D31
:100CC00008600846006840F44050086000204A4927
:100CD000C1F8AC01FFF75CFF01204649091F08601D
:100CE000FFF756FF00204449C1F8A80110BD10B518
:100CF00000204049091F08603D48001D006820F49D
:100D000070403B49091D08600846006840F44050A7
:100D1000086001203849C1F8AC01FFF739FF012014
:100D20003449091F0860FFF733FF00203249C1F83A
:100D3000A80110BD70B504462D48001D006820F4C0
:100D400070402B49091D08600846006840F4405077
:100D5000086000202749091F0860002512E0E0090B
:100D6000244908606006040E01202349C1F8A80147
:100D7000FFF70EFF00201F49091F0860FFF708FF5B
:100D8000681CC5B2082DEADB70BD70B505460024AD
:100D90001748001D006820F470401549091D0860BF
:100DA0000846006840F400400860002615E0002076
:100DB0001049091F0860FFF7EBFE01200E49C1F83A
:100DC000A8016006040E0B488038006808B1601C5A
:100DD000C4B2FFF7DDFE701CC6B2082EE7DB15B902
:100DE000FFF785FF01E0FFF75FFF204670BD0000C1
:100DF000000C0140AC8121420080214238B50446FC
:100E0000F74890F82400C0B114B10220009001E02E
:100E100000200090F24A1268D17BF14A52681078A3
:100E20006B460122FFF776FE10B14FF0FF3038BD60
:100E30009DF80010EA48417423E0E948807A10B92F
:100E40004FF0FF30F3E724B1E548407C08B10020C3
:100E5000EDE714B10120009001E000200090E04A8D
:100E60001268D17BDE4A526810786B460122FFF788
:100E700051FE10B14FF0FF30D9E79DF80010D8486F
:100E800041740020D3E738B500241FE0D44800683F
:100E9000C07AA04204D0D2480068407DA04200D170
:100EA00012E0CF49496808786B4601222146FFF7D6
:100EB0007CFD10B14FF0FF3038BD9DF80020214679
:100EC000C8A005F079FA00BF601CC4B2C4484068ED
:100ED0000079A042DADC0020EEE770B504460D464A
:100EE000BF480068C07AA04204D0BD480068407D79
:100EF000A04202D14FF0FF3070BDB9484068007980
:100F0000A04202DC4FF0FF30F6E7B54949680878A7
:100F10002B4601222146FFF748FDEDE738B5044690
:100F2000AF4890F82300A04201D1002038BD14B191
:100F30003020009001E000200090A948807C20B182
:100F40009DF8000040F002000090A54890F82200B3
:100F500020B19DF8000040F080000090A04A126887
:100F6000117D9F4A526810786B460122FFF7D2FD2F
:100F700010B14FF0FF30D9E7994880F823400020A6
:100F8000D4E738B5044604F0700010B10120009099
:100F900005E014B10020009001E040200090904A4C
:100FA0001268917C8E4A526810786B460122FFF7D6
:100FB000B1FD20B100218A488172481E38BD9DF8DC
:100FC000000020F04001864801730020009004F0EA
:100FD000400020B99DF8000040F00400009004F0AB
:100FE000200020B99DF8000040F00200009004F0BD
:100FF000100020B99DF8000040F00100009004F0BE
:10100000080020B99DF8000040F038000090744AB4
:101010001268D17C724A526810786B460122FFF741
:1010200079FD20B100216E488172481EC6E724B1C7
:10103000082C02D00020FFF771FF6948847200215C
:101040000175322003F0BBFD0020B7E738B5044638
:101050006348807CA04201D1002038BD002C46D0DE
:101060005F4A126811795E4A526810786B46012215
:10107000FFF79BFC10B14FF0FF30EEE79DF800004A
:1010800020F020000090564A12681179544A5268A4
:1010900010786B460122FFF73DFD10B14FF0FF3095
:1010A000DBE7032003F08BFD022000904C4890F812
:1010B000220020B19DF8000040F0800000904848D8
:1010C00090F8230020B19DF8000040F0300000901F
:1010D000434A1268117D424A526810786B460122D9
:1010E000FFF718FD002851D04FF0FF30B5E73C4A1C
:1010F000126811793A4A526810786B460122FFF75C
:1011000054FC10B14FF0FF30A7E73548807A00F06B
:10111000010028B19DF8000040F02000009004E09C
:101120009DF8000020F0200000902D4A12681179EF
:101130002B4A526810786B460122FFF7EBFC10B186
:101140004FF0FF3089E7032003F039FD244890F881
:10115000220010B18020009001E000200090204883
:1011600090F8230020B19DF8000040F0300000907E
:101170001B4A1268117D1A4A526810786B46012288
:10118000FFF7C8FC10B14FF0FF3066E714488474D5
:10119000002062E708B51248807A10B94FF0FF309E
:1011A00008BD002000900E4A1268D17B0C4A52689C
:1011B00010786B460122FFF7ADFC10B14FF0FF3005
:1011C000EEE7074A12685179054A526810786B4673
:1011D0000122FFF79FFC68B14FF0FF30E0E700000D
:1011E00034000020252335783A20252335780D0A50
:1011F00000000000F84A12681179F74A5268107826
:101200006B460122FFF786FC10B14FF0FF30C7E7B5
:10121000F14890F82400002853D00C200090EE4AAA
:1012200012681179EC4A526810786B460122FFF778
:1012300071FC10B14FF0FF30B2E7322003F0BFFC79
:10124000C0200090E448807A00F0010020B19DF8B1
:10125000000040F020000090DF4A12681179DE4A59
:10126000526810786B460122FFF754FC10B14FF022
:10127000FF3095E7D848407C10B10220009001E093
:1012800000200090D44A1268D17BD34A526810786B
:101290006B460122FFF73EFC10B14FF0FF307FE7B5
:1012A00000200090CC4A12685179CB4A52681078DD
:1012B0006B460122FFF72EFC002855D04FF0FF307F
:1012C0006EE704200090C44A12681179C24A52683D
:1012D00010786B460122FFF71DFC10B14FF0FF3074
:1012E0005EE7BD48807C20B9BB48807A00F00100F1
:1012F00010B94020009001E060200090B64A1268CA
:101300001179B54A526810786B460122FFF702FC4A
:1013100010B14FF0FF3043E7322003F050FCAE48ED
:10132000407C10B10120009001E000200090AA4A0A
:101330001268D17BA84A526810786B460122FFF7E9
:10134000E9FB10B14FF0FF302AE7A34A1268517948
:10135000A14A52681078A04B10330122FFF7DAFB44
:1013600010B14FF0FF301BE7002019E770B50446BD
:10137000002624F00104984890F8240008B10020C9
:1013800070BD9548807A10B94FF0FF30F8E7924869
:10139000057C807A2040904908740846007CA04271
:1013A00002D04FF0FF3600E0002614B98A48007DD5
:1013B00018B10120FFF722FD02E00020FFF71EFD1B
:1013C0003CB1FFF7E7FE20B1834805744FF0FF30D2
:1013D000D6E73046D4E738B504467F48807A10B95E
:1013E0004FF0FF3038BDBC2C02DB0120009015E02F
:1013F000622C02DB0220009010E02A2C02DB03208A
:1014000000900BE0142C02DB0420009006E00A2C74
:1014100002DB0520009001E0062000906E48C07AB3
:101420009DF80010884201D10020DBE76A4A12686B
:101430009178694A526810786B460122FFF76AFB7F
:1014400010B14FF0FF30CDE79DF800106248C17237
:101450000020C7E738B50446282C02DD4FF0FF30E6
:1014600038BDDCB90020FFF759FD00208DF80000E1
:1014700007208DF80100584A1268917C564A52683C
:1014800010786B460222FFF745FB10B14FF0FF309A
:10149000E6E70021504801750020E1E70120FFF751
:1014A0003DFD20208DF80000012C06D100208DF894
:1014B00001000520FFF78FFF17E0052C06DC012057
:1014C0008DF801000520FFF786FF0EE0142C06DCE6
:1014D00002208DF801000A20FFF77DFF05E00320C0
:1014E0008DF801001420FFF776FF9DF80100072119
:1014F00001EB8010C0B28DF80100374A1268917C70
:10150000354A526810786B460222FFF703FB10B190
:101510004FF0FF30A4E708212F48817200210173AA
:10152000012101750020FFF721FF002098E738B561
:1015300004462948807A10B94FF0FF3038BD26485C
:1015400090F8240010B14FF0FF30F7E72248007DFB
:1015500050B134B1282C04DCE0B2FFF77BFF00204F
:10156000ECE70020FFF776FF042C01DA042404E006
:10157000B4F57A7F01DD4FF47A744FF47A7090FB02
:10158000F4F0401EC0B20090134A12685178124A1B
:10159000526810786B460122FFF7BCFA10B14FF089
:1015A000FF30CBE79DF80000401C4FF47A7191FBAF
:1015B000F0F081B20848C1810146C9894810FFF79F
:1015C0000AFF0020BAE738B504460348807A28B9F4
:1015D0004FF0FF3038BD000034000020022C06D050
:1015E000042C07D0082C08D0102C0CD108E00020C7
:1015F00000900BE00820009008E01020009005E02B
:101600001820009002E04FF0FF30E3E700BFF948F8
:10161000407A9DF80010B0EBE10F01D10020D9E72E
:10162000F44A1268D179F34A526810786B46012265
:10163000FFF770FA10B14FF0FF30CBE79DF80000D4
:10164000C110EC4841720020C4E738B50446E948AF
:10165000807A10B94FF0FF3038BDFA2C09D0B4F5BC
:10166000FA7F09D0B4F57A7F09D0B4F5FA6F0CD1BE
:1016700008E0002000900BE00820009008E0102017
:10168000009005E01820009002E04FF0FF30E3E703
:1016900000BFD848007A9DF80010B0EBE10F01D1EF
:1016A0000020D9E7D34A12689179D24A526810785B
:1016B0006B460122FFF72EFA10B14FF0FF30CBE757
:1016C0009DF80000C010CB4908720020C4E71CB58B
:1016D00080208DF80000C74A1268917CC54A526884
:1016E00010786B460122FFF715FA10B14FF0FF306A
:1016F0001CBD642003F063FA00208DF80000BD4A91
:101700001268917CBB4A526810786B460122FFF741
:1017100001FA10B14FF0FF30EAE7B64A1268917D46
:10172000B44A526810786B460622FFF73EF910B1B2
:101730004FF0FF30DCE79DF80500C007400F9DF833
:10174000031001F0010140EA41009DF8011001F091
:10175000010140EA010494B1012C03D10121A54803
:10176000C17431E0022C03D10021A248C1742BE0E6
:101770002146A1A004F020FE4FF0FF30B8E79D4ABB
:101780001268D1789B4A526810786B460122FFF7A5
:101790000CF910B14FF0FF30AAE79DF8000000F0FF
:1017A0000F042CB99E4804F007FE4FF0FF309FE76E
:1017B000042C06D19BA004F0FFFD01218D48C174CB
:1017C00002E000218B48C174FF218A488172FF200A
:1017D00088490872FF2187484172C1724FF6FF7134
:1017E000C181FF21017481740121017380F82210ED
:1017F000002180F8231041750175163001604160A9
:101800008160163880F8241080F82510C1844FF4C8
:10181000FA60FFF71AFF10B14FF0FF3068E70220BF
:10182000FFF7D1FE10B14FF0FF3061E72A20FFF73C
:10183000D2FD10B14FF0FF305AE73220FFF777FEAC
:1018400010B14FF0FF3053E70020FFF78FFD10B1CC
:101850004FF0FF304CE70020FFF7F8FB10B14FF0DE
:10186000FF3045E70020FFF78CFB002040E7704782
:101870007CB504460D465F48807A00F0700010B9D0
:101880004FF0FF307CBD5B4A1268117B594A5268A9
:1018900010786B460622FFF788F810B14FF0FF3042
:1018A000F0E79DF801009DF8001040EA012000B229
:1018B00020809DF803009DF8021040EA012000B24C
:1018C00060809DF805009DF8041040EA012000B2F8
:1018D000A08015B12846FFF7CAFF0020D2E77CB5EB
:1018E00004460D464348807A00F0080010B94FF0D6
:1018F000FF307CBD3F4A1268517B3E4A52681078E7
:101900006B460622FFF751F810B14FF0FF30F0E7B9
:101910009DF801009DF8001040EA012000B22080EF
:101920009DF803009DF8021040EA012000B260809B
:101930009DF805009DF8041040EA012000B2A08047
:1019400015B12846FFF793FF0020D2E72DE9FE4F9F
:1019500005460C462748807A18B94FF0FF30BDE89D
:10196000FE8F244A1268917B224A5268107802AB9B
:101970000222FFF71AF810B14FF0FF30EFE79DF8A1
:1019800009009DF8081040EA012006B214B1204673
:10199000FFF76DFF17494968C88804F08EFA1549AA
:1019A00001904968B1F9080004F07EFA8346304698
:1019B00004F07AFA5946009004F078F882460199CA
:1019C00004F0ACF881461F4904F01EF880464FF041
:1019D0008F4104F071F8074604F092FA2860002065
:1019E000BDE710B588B004461CB94FF0FF3008B011
:1019F00010BD29E034000020556E737570706F7251
:101A000074656420736F6674776172652070726F9D
:101A100064756374207265762025642E0A000000C8
:101A20001085000848616C662073656E736974697F
:101A300076697479207061727420666F756E642E99
:101A40000A00000000000C42206830B9606820B92C
:101A5000A06810B9002008B010BDFA49496808789C
:101A600006AB03221146FEF7A0FF10B14FF0FF3086
:101A7000F1E79DF81800082101EB201000F00F009D
:101A8000ADF800009DF8190001EB201000F00F00E8
:101A9000ADF802009DF81A0001EB201000F00F00D5
:101AA000ADF8040020684100BDF90000403091FB12
:101AB000F0F000B2ADF8100060684100BDF902001E
:101AC000403091FBF0F000B2ADF81200A068410088
:101AD000BDF90400403091FBF0F000B2ADF8140005
:101AE000D8494968087806AB06221146FEF75DFF23
:101AF00010B14FF0FF30AEE79DF819009DF81810B7
:101B000040EA012000B2ADF808009DF81B009DF8E6
:101B10001A1040EA012000B2ADF80A009DF81D003D
:101B20009DF81C1040EA012000B2ADF80C00BDF891
:101B30001000BDF80810084400B2ADF81000BDF860
:101B40001200BDF80A10084400B2ADF81200BDF84A
:101B50001400BDF80C10084400B2ADF81400BDF834
:101B60001000000A8DF81800BDF81000C0B28DF802
:101B70001900BDF81200000A8DF81A00BDF8120015
:101B8000C0B28DF81B00BDF81400000A8DF81C00CF
:101B9000BDF81400C0B28DF81D00AA494968087844
:101BA00006AB06221146FEF7B5FF10B14FF0FF302D
:101BB00051E700204FE70146A248007A30B10128E2
:101BC00007D0022809D003280FD10AE0FA200880A4
:101BD0000EE04FF4FA7008800AE04FF47A70088043
:101BE00006E04FF4FA60088002E00020088000BFA1
:101BF00000BF0020704701469248407A30B101286A
:101C000007D0022808D003280CD108E00220087071
:101C10000BE00420087008E00820087005E01020A0
:101C2000087002E04FF0FF30704700BF8548C07C6D
:101C300018B108784006000E08700020F4E701464D
:101C40008048C07A082817D2DFE800F01704070A96
:101C50000D101318BC20088013E06220088010E0EB
:101C60002A2008800DE0142008800AE00A2008805D
:101C700007E00520088004E000BF00BF00200880C6
:101C800000BF00BF0020704701466E4890F8240056
:101C900010B14FF0FF3070476A48C08908800020BB
:101CA000F9E7014600200880401E704701464FF0CA
:101CB000FF30704701466348007A30B1012807D0F1
:101CC000022808D003280CD108E05F4808600BE028
:101CD0005E48086008E05E48086005E05D4808600E
:101CE00002E04FF0FF30704700BF0020FBE70146E5
:101CF0005448407A30B1012808D002280AD003287D
:101D000010D10BE04FF4804008800EE041F69C704B
:101D100008800AE04FF48050088006E04FF400602D
:101D2000088002E04FF0FF30704700BF4548C07C9C
:101D300010B10888401008800020F5E701464148AE
:101D4000007C08700020704701463E48807A10B140
:101D50000120087001E0002008700020704738B5AD
:101D600004463848807A10B94FF0FF3038BD354A04
:101D70001268117C334A526810786B460222FEF7D3
:101D800014FE10B14FF0FF30F0E79DF801009DF810
:101D9000001040EA012000B220800020E6E72DE993
:101DA000FE4F0746884692461D46DDF830B00026B5
:101DB0000024244890F8240010B1601EBDE8FE8F76
:101DC000002028701F48807A10B94FF0FF30F5E7E7
:101DD0001C48007C10B94FF0FF30EFE71948007C39
:101DE00000F0400008B1B01CC6B21648007C00F0FC
:101DF000200008B1B01CC6B21248007C00F01000F0
:101E000008B1B01CC6B20F48007C00F0080008B151
:101E1000B01DC6B20B4A1268917A0A4A526810780D
:101E20006B460222FEF7C1FD10B14FF0FF30C5E74F
:101E30009DF801009DF8001040EA0129B1450BDA38
:101E40000020BBE734000020000003430000834271
:101E50003333034233338341FC4840684088B9EB55
:101E6000600F17DDF94A1268517CF84A5268107801
:101E70006B460122FEF799FD10B14FF0FF309DE750
:101E80009DF8000000F0100020B1FFF783F96FF01B
:101E9000010093E75046FFF7EAFCEC4A1268D17A5A
:101EA000EA4A526810786B463246FEF77EFD10B162
:101EB0004FF0FF3082E799FBF6F0401E8BF80000F0
:101EC00000202870B4422AD0E048007C00F00800CE
:101ED00028B3601C1DF800001DF8041040EA012022
:101EE00000B2A8F80000E01C1DF80010A01C1DF8AE
:101EF000000041EA002000B2A8F80200601D1DF8B1
:101F00000010201D1DF8000041EA002000B2A8F8D2
:101F10000400287840F008002870A01D84B2B44264
:101F200013D0CA48007C00F0400070B1601C1DF85E
:101F300000001DF8041040EA012000B23880287823
:101F400040F040002870A01C84B2B44213D0BF48B7
:101F5000007C00F0200070B1601C1DF800001DF82E
:101F6000041040EA012000B27880287840F0200078
:101F70002870A01C84B2B44213D0B448007C00F096
:101F8000100070B1601C1DF800001DF8041040EA3C
:101F9000012000B2B880287840F010002870A01C02
:101FA00084B200200AE7F8B504460F461646A74853
:101FB00090F8240010B94FF0FF30F8BDA348807AA4
:101FC00010B94FF0FF30F8E7A04A1268917A9F4AA3
:101FD000526810786B460222FEF7E7FC10B14FF012
:101FE000FF30EAE79DF801009DF8001040EA012566
:101FF000A54203DA00203070401EDEE793484068B7
:102000004088B5EB600F17DD904A1268517C8F4A0B
:10201000526810786B460122FEF7C7FC10B14FF0F2
:10202000FF30CAE79DF8000000F0100020B1FFF774
:10203000B1F86FF00100C0E7E2B2844B1B68D97AB7
:10204000824B5B6818783B46FEF7AFFC10B14FF04F
:10205000FF30B2E795FBF4F0401E30700020ACE793
:1020600001467A4880F82210002070477CB505466A
:1020700076494968087801AB04220D21FEF795FCEA
:1020800008B107207CBD9DF80700C0F301109DF842
:10209000041001F0E00140EAE1008DF800009DF835
:1020A0000700C0F381009DF8051001F0E00140EA4F
:1020B000E1008DF801009DF8070000F003009DF895
:1020C000061001F0E00140EAE1008DF80200002472
:1020D0001CE01DF8040018B9002045F8240013E0A6
:1020E0005B4845F8240006E055F82400594903F000
:1020F000E3FC45F824001DF80400401EC0B20DF8B2
:1021000004000028F0D100BF601CC4B2032CE0DB47
:102110000020B7E72DE9FE4F06460F46002568462A
:10212000FFF7A4FF002442E056F8240057F82410DB
:10213000A0EB010ABAF1000F01DB514601E0CAF140
:102140000001084603F0B0FE83464FF08F4103F0D4
:10215000E5FC80465DF82400002103F07DFF16D0E9
:102160005DF82410404603F0D9FC82464FF07E51C2
:1021700003F09CFC814629F0004A3748416A5046EA
:1021800003F074FF12D20120A04005430EE0324854
:10219000C169404603F060FF05D32F48016A4046FD
:1021A00003F064FF02D20120A0400543641C032C0D
:1021B000BADB2846BDE8FE8F2DE9FC5F06460F46D8
:1021C000002522494968087801AB03220D21FEF75A
:1021D000ECFB10B10720BDE8FC9F9DF8040000F067
:1021E0001F008DF804009DF8050000F01F008DF819
:1021F00005009DF8060000F01F008DF80600002481
:1022000062E056F8240057F82410A0EB010BBBF154
:10221000000F01DB594601E0CBF10001084603F055
:1022200043FE4FF08F41009003F078FC814601A8F7
:10223000005DC0B30849086803F03FFE8346594675
:10224000064803F06BFC80460FE0000034000020DD
:102250007B14AE3E1D5A843FE46F000800B04C452D
:10226000FE49404603F028FC804601A8005D401E60
:10227000C0B201A908550028F2D14146484603F0F2
:102280004DFC83464FF07E5103F010FC82462AF04D
:10229000004BF3488169584603F0E8FE13D2012051
:1022A000A04005430FE0FFE7ED480169484603F011
:1022B000D3FE05D3EA484169484603F0D7FE02D26F
:1022C0000120A0400543641C032C9ADB284682E7CA
:1022D0002DE9F04F87B005460C46914601208DF858
:1022E000100000208DF81100DE4A1268917CDD4A52
:1022F0005268107804AB0222FEF70CFC20B14FF0BC
:10230000FF3007B0BDE8F08FC82002F058FC002075
:102310008DF81000D34A1268D17BD24A52681078E7
:1023200004AB0122FEF7F6FB10B14FF0FF30E8E7F7
:10233000CC4A12685179CB4A5268107804AB01221A
:10234000FEF7E8FB10B14FF0FF30DAE7C54A12683C
:10235000917CC44A5268107804AB0122FEF7DAFB84
:1023600010B14FF0FF30CCE7BE4A1268D17DBD4AB4
:102370005268107804AB0122FEF7CCFB10B14FF08D
:10238000FF30BEE7B74A12681179B64A5268107832
:1023900004AB0122FEF7BEFB10B14FF0FF30B0E7F7
:1023A0000C208DF81000AF4A12681179AD4A5268BE
:1023B000107804AB0122FEF7ADFB10B14FF0FF30F7
:1023C0009FE70F2002F0FBFBA648806A407A8DF859
:1023D0001000A44A12689178A24A5268107804AB9F
:1023E0000122FEF797FB10B14FF0FF3089E79D48BF
:1023F000806A007A8DF810009A4A12685178994ADA
:102400005268107804AB0122FEF784FB10B14FF044
:10241000FF3076E7B9F1000F07D09248806A807AE2
:1024200040F0E0008DF8100004E08E48806A807A69
:102430008DF810008B4A126891798A4A5268107898
:1024400004AB0122FEF766FB10B14FF0FF3058E7F6
:10245000B9F1000F07D08348806AC07A40F0E000ED
:102460008DF8100003E07E48C07A8DF810007D4A98
:102470001268D1797B4A5268107804AB0122FEF7CA
:1024800049FB10B14FF0FF303BE7B9F1000F02D02C
:10249000C82002F094FB40208DF81000714A1268A9
:1024A0001179704A5268107804AB0122FEF732FBB2
:1024B00010B14FF0FF3024E778208DF81000694A02
:1024C00012685179674A5268107804AB0122FEF70E
:1024D00021FB10B14FF0FF3013E76149888902F00A
:1024E0006EFB00208DF810005E4A126851795D4A3B
:1024F0005268107804AB0122FEF70CFB10B14FF0CC
:10250000FF30FEE6574A1268917A564A52681078B0
:1025100004AB0222FEF749FA10B14FF0FF30F0E6AB
:102520009DF811009DF8101040EA012B0C209BFB38
:10253000F0F0C6B20020A86068602860A06060600B
:102540002060824665E0474A1268D17A454A52685F
:10255000107804AB0C22FEF728FA10B14FF0FF30D0
:10256000CFE69DF811009DF8101040EA012000B25E
:10257000ADF808009DF813009DF8121040EA012004
:1025800000B2ADF80A009DF815009DF8141040EA5D
:10259000012000B2ADF80C00BDF908102068084415
:1025A0002060BDF90A10606808446060BDF90C1035
:1025B000A0680844A0609DF817009DF8161040EA36
:1025C000012000B2ADF800009DF819009DF8181028
:1025D00040EA012000B2ADF802009DF81B009DF812
:1025E0001A1040EA012000B2ADF80400BDF9001055
:1025F000286808442860BDF90210686808446860CB
:10260000BDF90410A8680844A8600AF1010000F0B0
:10261000FF0AB24597DB1248D0F800C02868C117FE
:10262000090441EA1041070462460023384603F0DA
:102630009BF932460023CDE9020103F095F92860A9
:102640000748D0F800C06868C117090441EA104182
:10265000070462460023384606E0000054E3853F45
:10266000E46F00083400002003F07EF932460023B6
:10267000CDE9020103F078F96860FE48D0F800C0A7
:10268000A868C117090441EA104107046246002303
:10269000384603F069F932460023CDE9020103F020
:1026A00063F9A860F348D0F804C02168C817000493
:1026B00040EA11480F04624600233846414603F0C1
:1026C00053F932460023CDE9020103F04DF92060B1
:1026D000E848D0F804C06068C117090441EA104115
:1026E000070462460023384603F03EF932460023D1
:1026F000CDE9020103F038F96060DE48D0F804C08B
:10270000A068C117090441EA10410704624600238A
:10271000384603F029F932460023CDE9020103F0DF
:1027200023F9A060A068002804DDA068A0F580302F
:10273000A06003E0A06800F58030A0600020E0E524
:1027400038B50446CC4890F82400A04201D10020BE
:1027500038BD24B3C84890F8250010B94FF0FF30B9
:10276000F6E70020FEF74AFB0020FEF76FFCC249A7
:10277000C88CFEF7DCFE00200090BF49496808784D
:102780006B4601222321FEF7C5F90121BA4880F8E2
:1027900024100120FEF732FBFEF7FCFC13E00020C2
:1027A000FEF72CFBB448007C0090B34949680878D8
:1027B0006B4601222321FEF7ADF90021AE4880F8D7
:1027C0002410FEF7E7FC0020C2E72DE9F04F8DB0A2
:1027D00083460F4602200C90A74890F8240020B1B1
:1027E0000020FFF7ADFF012600E0002603A8FFF759
:1027F000E2F905A8FFF7FFF901A8FFF720FA02A800
:10280000FFF742FA9C4890F80AA004A8FFF796FA4E
:10281000002407E0002239465846FFF759FD00B969
:1028200002E0641C022CF5DB00BF022C01D1002564
:1028300028E0002407E0012206A909A8FFF748FDC7
:1028400000B902E0641C022CF5DB00BF022C01D1B0
:10285000002517E006A93846FFF75CFC00F0FF08EA
:1028600009A95846FFF7A8FC00F0FF090025B9F1B7
:10287000000F01D145F00105B8F1000F01D145F07D
:10288000020500BFFF207C490872FF217A4841728F
:10289000C1724FF6FF71C181FF2181720174012164
:1028A0000173BDF80C00FEF7D0FE9DF81400FEF792
:1028B0008AFEBDF80400FEF78EFDBDF80800FEF7A5
:1028C00036FE5046FEF75DFB9DF81000FEF74EFD0C
:1028D00016B10120FFF734FF28460DB0BDE8F08F98
:1028E000F8B504460D46164616B94FF0FF30F8BD50
:1028F0006148807A10B94FF0FF30F8E720128DF868
:102900000000E0B28DF801009DF8010028445A490A
:1029100049684989884202DD4FF0FF30E7E7564AAF
:102920001268117E544A526810786B460222FEF7F4
:10293000F1F810B14FF0FF30D9E7EAB24E4B1B6807
:10294000597D4D4B5B6818783346FEF7E3F810B1BC
:102950004FF0FF30CBE70020C9E7F8B504460D463D
:10296000164616B94FF0FF30F8BD4348807A10B9CB
:102970004FF0FF30F8E720128DF80000E0B28DF83C
:1029800001009DF8010028443B4949684989884273
:1029900002DD4FF0FF30E7E7374A1268117E364A12
:1029A000526810786B460222FEF7B4F810B14FF06F
:1029B000FF30D9E7EAB2304B1B68597D2E4B5B687C
:1029C00018783346FDF7F1FF10B14FF0FF30CBE739
:1029D0000020C9E72DE9F04385B005460E46904634
:1029E0009946254890F8250020B14FF0FF3005B0FA
:1029F000BDE8F08316B94FF0FF30F8E7002423E07C
:102A0000281B102801DD102000E0281B87B2321996
:102A100039462046FFF764FF10B14FF0FF30E6E77C
:102A200001AA39462046FFF798FF10B14FF0FF305A
:102A3000DDE730193A4601A902F0D9FF10B16FF075
:102A40000100D4E7E01984B2AC42D9DB4FEA282078
:102A50008DF8000008F0FF008DF80100064A1268AA
:102A6000917E054A526810786B460222FEF752F8B2
:102A700038B103E0E46F0008340000204FF0FF306D
:102A8000B5E70121FE4880F82510A0F82690002027
:102A9000ADE70146FA4890F824000870002070471E
:102AA0004FF0FF30704702464FF0FF30704701464D
:102AB0004FF0FF307047F8B505460F461446002C1E
:102AC00070D0B5F5FF5F01DDFF2605E0202D01DAAE
:102AD000012601E0C5F3471607B90127282C02DDBE
:102AE0004FF0FF30F8BDE648407D28BBE44890F841
:102AF000240038B10020FFF723FE0121E04880F8D0
:102B0000201003E00021DE4880F82010DC48163059
:102B1000FFF751F8DA481830FFF76DF8D8481A3047
:102B2000FFF78DF8D6481C30FFF7AEF8D448817A0D
:102B300081771F30FFF702F90020FEF75FF90020D0
:102B4000FEF788FC00208DF80000CD4A12689178CD
:102B5000CB4A526810786B460122FDF7DBFF10B1BB
:102B60004FF0FF30BEE740208DF80000C44A1268E5
:102B7000D17BC34A526810786B460122FDF7CAFF29
:102B800000B165E08DF800608DF80170BC4A1268F4
:102B9000117ABB4A526810786B460222FDF7BAFFE1
:102BA00008B155E047E0052002F009F8B448407A42
:102BB000072101EBC000C0B28DF80000B04A1268D6
:102BC000D179AF4A526810786B460122FDF7A2FF17
:102BD00000B13DE020208DF80000012C03D1002041
:102BE0008DF801000EE0052C03DC01208DF80100BA
:102BF00008E0142C03DC02208DF8010002E0032021
:102C00008DF801009DF80100072101EB8010C0B292
:102C10008DF801009A4A1268917C994A526810789E
:102C20006B460222FDF776FF00B111E001219448C6
:102C30004175002056E7924A1632002103E0505CAD
:102C400000B105E0491C0C29F9D34FF0FF3049E7EA
:102C5000FF208B490872FF2189484172C1724FF6EB
:102C6000FF71C181FF21817201740121017301464D
:102C7000887FFEF786F98249C88AFEF7E6FC80491C
:102C8000087EFEF7A0FC7E49488BFEF7A4FB7C493A
:102C9000888BFEF74CFC7A49C87FFEF767FB7848C3
:102CA00090F8200010B10120FFF74AFD0021744880
:102CB0004175002016E770B588B002A905A8FFF796
:102CC00084FD0446032C3ED101A8FEF7F3FF0598CE
:102CD00003F0EAF80646019902F0EEFE054603F01D
:102CE0000FF90590069803F0DFF80646019902F007
:102CF000E3FE054603F004F90690079803F0D4F8C4
:102D00000646019902F0D8FE054603F0F9F807904F
:102D100005A800F054FA6846FEF7E9FFBDF8001078
:102D2000029848430290BDF800100398484303906E
:102D3000BDF8001004984843049002A800F0D2FAAD
:102D4000002008B070BD0120FBE7014691F900208A
:102D5000002A01DD00201EE091F90020002A01DA9E
:102D6000042018E091F90120002A01DD012012E081
:102D700091F90120002A01DA05200CE091F90220E6
:102D8000002A01DD022006E091F90220002A01DA82
:102D9000062000E00720704710B504462046FFF7E4
:102DA000D4FF0346E01CFFF7D0FF43EAC00083B224
:102DB000A01DFFF7CAFF43EA801083B2184610BD7A
:102DC00070B50024FDF7E9FEFEF781FC002840D134
:102DD0007820FEF7D6F8C4B20CB1012070BD78207F
:102DE000FEF7C4FAC4B20CB10220F7E76420FEF784
:102DF0009EFBC4B20CB10320F0E700F045F9C4B269
:102E00000CB10420EAE71F48FFF7C6FF054600F0B3
:102E100045F9C4B20CB10520E0E740F2731000F0B0
:102E20007EFDC4B20CB10620D8E7642000F0F0FAB1
:102E3000C4B20CB10720D1E7FFF73DFF04460CB147
:102E40000820CBE70120FFF77BFCC4B21CB10920AE
:102E5000C4E70A20C2E70020C0E72DE9F04F99B08F
:102E600004460D4616464FF07E574FF000084FF0CF
:102E700000094FF0000A12A813A918AB0EAA03E02C
:102E80003400002060000020CDE9001014A916A82D
:102E900000F0A4FE18B1012019B0BDE8F08FBDF814
:102EA0004C0000F4807000287ED00E9802F0FCFFE9
:102EB00083464FF09D4102F031FE07460F9802F025
:102EC000F3FF83464FF09D4102F028FE80461098A4
:102ED00002F0EAFF83464FF09D4102F01FFE81465B
:102EE000119802F0E1FF83464FF09D4102F016FE7B
:102EF000824639464FF0804002F0DEFD494605909B
:102F000002F0DAFD414607904FF0404002F0D4FD58
:102F10005146059002F0D0FD0690079902F074FD2D
:102F2000834603F052F8CDE9080103F019FD4FF094
:102F30006632544BCDE90A0102F0D5FECDE90C0111
:102F400003F06EF8206049464FF0804002F0B4FD77
:102F50004946029002F0B0FD414604904FF04040D7
:102F600002F0AAFD4146029002F0A6FD03900499EA
:102F700002F09CFD83464FF07E5102F045FD059026
:102F800003F023F8CDE9080139464FF0804002F004
:102F900093FD4146039002F08FFD494604904FF0A7
:102FA000804002F089FD00E068E05146039002F0A5
:102FB00083FD8346049902F027FD059003F005F890
:102FC000CDE90601DDE9082303F012FF4FF0663278
:102FD0002C4BCDE90A0102F086FECDE90C0103F08D
:102FE0001FF828605146504602F066FD494604909D
:102FF000484602F061FD41460390404602F05CFD08
:1030000039460190384602F057FD0090019902F0D0
:10301000FBFC0290039902F049FD8346049902F0FB
:1030200045FD059002F0D1FFCDE908015146384633
:1030300002F042FD49460490404602F03DFD0390F7
:10304000049902F0E1FC4FF08041059002F034FD5C
:10305000834602F0BAFFCDE90601DDE9082303F05B
:10306000C7FE4FF06632074BCDE90A0102F03BFE86
:10307000CDE90C0102F0D4FF306001E002200BE743
:10308000002009E766A64C4010B5C8234FF48062C3
:10309000F74940F6F630FFF79DFC10BD10B586B03D
:1030A0000446F4A000680390F3A000680290F3A027
:1030B00000680190F2A00068009004F0030003A9EA
:1030C000085C8DF8140003A8C4F3C101405C8DF8BE
:1030D000150003A8C4F38111405C8DF8160004F0BC
:1030E000030002A9085C8DF8100002A8C4F3C10116
:1030F000405C8DF8110002A8C4F38111405C8DF88A
:10310000120005AA032140F22640FFF7E9FB18B19F
:103110004FF0FF3006B010BD04AA032140F22A4050
:10312000FFF7DEFB10B14FF0FF30F3E70198059099
:103130000098049004F0040058B19DF8140040F089
:1031400001008DF814009DF8100040F001008DF88A
:10315000100004F0200058B19DF8150040F0010067
:103160008DF815009DF8110040F001008DF8110058
:1031700004F4807058B19DF8160040F001008DF8FD
:1031800016009DF8120040F001008DF8120005AA0B
:1031900003214FF48860FFF7A3FB10B14FF0FF301D
:1031A000B8E704AA032140F23140FFF799FB10B1C0
:1031B0004FF0FF30AEE7B34804810020AAE71FB507
:1031C0000446B048007A00F0030054F82000019053
:1031D000AC48007A00F0040010B101984042019020
:1031E000A848007AC0F3C10054F820000290A54816
:1031F000007A00F0200010B1029840420290A148ED
:10320000007AC0F3811054F8200003909D48008993
:1032100000F4807010B10398404203909A490198DD
:1032200080FB0101800F40EA8100019096490298DD
:1032300080FB0110820042EA91700290924903984B
:1032400080FB0110820042EA917003900198000E09
:103250008DF800000198000C8DF801000198000A1B
:103260008DF802000198C0B28DF803006A4604216F
:103270004FF47470FFF734FB18B14FF0FF3004B017
:1032800010BD0298000E8DF800000298000C8DF819
:1032900001000298000A8DF802000298C0B28DF871
:1032A00003006A4604214FF47570FFF719FB10B153
:1032B0004FF0FF30E3E70398000E8DF8000003980D
:1032C000000C8DF801000398000A8DF802000398A5
:1032D000C0B28DF803006A4604214FF47670FFF700
:1032E000FFFACCE770B588B0064601A8FEF7FFFCF0
:1032F000BDF804000021C90341EA5045C4036148F8
:10330000007A00F0030056F8200005905D48007A2E
:1033100000F0040010B10598404205905948007A29
:10332000C0F3C10056F8200006905648007A00F01D
:10333000200010B10698404206905248007AC0F32F
:10334000811056F8200007904E48008900F48070E4
:1033500010B10798404207900598C117A0FB0423BD
:1033600001FB043100FB0510810041EA92700590D9
:103370000698C117A0FB042301FB043100FB0510D4
:10338000810041EA927006900798C117A0FB0423C0
:1033900001FB043100FB0510810041EA92700790A7
:1033A0000598000E8DF808000598000C8DF80900AE
:1033B0000598000A8DF80A000598C0B28DF80B0038
:1033C0000698000E8DF80C000698000C8DF80D0084
:1033D0000698000A8DF80E000698C0B28DF80F000E
:1033E0000798000E8DF810000798000C8DF811005A
:1033F0000798000A8DF812000798C0B28DF81300E4
:1034000002AA0C214FF42570FFF76AFA08B070BDCC
:1034100030B585B004461DA207CA02AB07C3C82C4D
:1034200003DD4FF0FF3005B030BDC82090FBF4F055
:10343000401E85B2280A8DF80000E8B28DF8010020
:103440006A46022140F21620FFF74AFA10B14FF007
:10345000FF30E8E702AA0C2140F6C120FFF740FA4E
:1034600010B14FF0FF30DEE7064884810020DAE734
:103470000C7000084CCD6C000CC92C003656760040
:10348000264666002006002009E3CA02FEF2ABC40D
:10349000AAF1DFDFBBAFDFDF0146FC48808908808F
:1034A000002070472DE9FC4706460F4606F007004E
:1034B00010B1B7F5C86F03DD4FF0FF30BDE8FC87F2
:1034C000384602F0FAFC8146F14902F027FB8046BB
:1034D0006846FEF790FB9DF80000022806D00428FD
:1034E00016D0082826D0102848D135E04FF08D415D
:1034F000404602F0E1FA814602F01BFD84B2E54944
:10350000404602F0D9FA814602F013FD85B238E058
:103510004FF08C41404602F0CFFA814602F009FD9F
:1035200084B2DD49404602F0C7FA814602F001FD4F
:1035300085B226E04FF08B41404602F0BDFA81464D
:1035400002F0F7FC84B2D549404602F0B5FA814654
:1035500002F0EFFC85B214E04FF08A41404602F0E1
:10356000ABFA814602F0E5FC84B2CD49404602F058
:10357000A3FA814602F0DDFC85B202E04FF0FF3095
:103580009CE700BF20128DF80400E0B28DF8050022
:1035900028128DF80600E8B28DF8070006F0010049
:1035A000A0B101AA02214FF4EA70FFF799F910B116
:1035B0004FF0FF3082E70DF1060202214FF49270C6
:1035C000FFF78EF910B14FF0FF3077E706F00200F9
:1035D000A0B101AA02214FF4EC70FFF781F910B1FC
:1035E0004FF0FF306AE70DF1060202214FF49470AC
:1035F000FFF776F910B14FF0FF305FE706F00400F7
:10360000A0B101AA02214FF4EE70FFF769F910B1E1
:103610004FF0FF3052E70DF1060202214FF4967091
:10362000FFF75EF910B14FF0FF3047E7002045E7A4
:1036300038B504460020009004F0010020B19DF848
:10364000000040F03000009004F0020020B19DF82E
:10365000000040F00C00009004F0040020B19DF840
:10366000000040F0030000906A4601214FF4A4706E
:10367000FFF736F938BD38B50446012C01DA0124CC
:1036800002E0042C00DD0424601EC0B200906A46F3
:10369000012140F24F10FFF723F938BD38B5044639
:1036A000052094FBF0F085B228128DF80000E8B2F6
:1036B0008DF801006A4602214FF4EF70FFF710F910
:1036C00038BD38B50446052094FBF0F085B22812C9
:1036D0008DF80000E8B28DF801006A4602214FF42F
:1036E000ED70FFF7FDF838BDF8B505460E464FF40E
:1036F0007A7095FBF0F000FB06F4200E8DF80000C8
:10370000200C8DF80100200A8DF80200E0B28DF83F
:1037100003006A4604214FF4AE70FFF7E1F8F8BDEC
:1037200038B50446052094FBF0F084B220128DF8E1
:103730000000E0B28DF801006A4602214FF4AD703E
:10374000FFF7CEF838BD38B50446052094FBF0F0FD
:1037500084B220128DF80000E0B28DF801006A46B4
:1037600002214FF4AC70FFF7BBF838BD38B5044602
:1037700014B94FF0FF3038BD6A4604214FF4587039
:10378000FFF7EBF810B14FF0FF30F4E79DF80000C1
:1037900000069DF8011040EA01409DF8021040EA41
:1037A00001209DF80310084320600020E3E738B5AE
:1037B0000446200E8DF80000200C8DF80100200A30
:1037C0008DF80200E0B28DF803006A4604214FF440
:1037D0005870FFF785F838BD38B5044614B94FF076
:1037E000FF3038BD6A4604214FF47170FFF7B5F819
:1037F00010B14FF0FF30F4E79DF8000000069DF88F
:10380000011040EA01409DF8021040EA01209DF8B5
:103810000310084300EB8000800020600020E0E7F8
:1038200038B504461420B4FBF0F4200E8DF80000E7
:10383000200C8DF80100200A8DF80200E0B28DF80E
:1038400003006A4604214FF47170FFF749F838BD50
:1038500038B5044664B120208DF8000028208DF88A
:10386000010030208DF8020038208DF8030004E0BC
:10387000A3220421684602F0A8F86A46042140F613
:103880009E20FFF72DF8FDF785FC38BD20060020AF
:1038900000004843000040460000C045000040458D
:1038A0000000C04438B5044664B1C0208DF8000063
:1038B000C2208DF80100C4208DF80200C6208DF8CA
:1038C000030004E08B220421684602F07EF86A4679
:1038D000042140F69820FFF703F8FDF75BFC38BDA4
:1038E0003EB504466CB1FDA1D1E900208968CDE95F
:1038F000002002916A4609214FF49760FEF7F0FF1D
:103900003EBDF9A2D2E900109268CDE90102009112
:103910006A4609214FF49760FEF7E2FFF0E73EB5F3
:10392000044602208DF80000CA208DF80100E32033
:103930008DF8020009208DF803006A4604216820F2
:10394000FEF7CEFFA3208DF8000004F0400048B140
:10395000C0208DF80100C8208DF80200C2208DF82B
:10396000030006E0A3208DF801008DF802008DF819
:10397000030004F4C07048B1C4208DF80400CC20CA
:103980008DF80500C6208DF8060006E0A3208DF80E
:1039900004008DF805008DF80600A3208DF80700BF
:1039A0008DF808008DF809006A460A2140F6A72024
:1039B000FEF796FF04F0030018B120208DF80000F8
:1039C00002E0D8208DF800006A46012140F6B620BA
:1039D000FEF786FF04F0200018B10120FFF780FFFA
:1039E00002E00020FFF77CFF04F4C07008B304F489
:1039F000807060B1B2208DF800008B208DF801003E
:103A0000B6208DF802009B208DF803000BE0B0205B
:103A10008DF8000080208DF80100B4208DF80200A0
:103A200090208DF803006A46042140F6A220FEF79C
:103A300057FF04F0010020B3F8208DF800006A461B
:103A400001214FF40B60FEF74BFFFA210720FFF72F
:103A500029FD0720FFF7ECFD0120FFF70CFE642095
:103A6000FFF71CFE4FF4FA70FFF72BFEC821A148A8
:103A7000FFF73AFE2820FFF753FE0A20FFF763FE08
:103A800008E0D8208DF800006A4601214FF40B6051
:103A9000FEF726FF04F0020018B1D9208DF80000CF
:103AA00002E0D8208DF800006A46012140F23D7006
:103AB000FEF716FF04F0040018B10120FFF7F2FE34
:103AC00002E00020FFF7EEFE04F0100018B1012024
:103AD000FFF7BEFE02E00020FFF7BAFE44F0080048
:103AE00085494881FDF756FB00208349887304F01F
:103AF000400018B10846807B801D887304F4C070B4
:103B000020B17D48807B801D7B49887304F01400C0
:103B100020B17948807B10307749887304F0030026
:103B200020B17548807B001D7349887300203EBD1D
:103B30000146714840890880002070472DE9F04116
:103B40000446E07800F0C006E07800F03F056078B9
:103B500000F0010098B1EF102846E91705EB51710C
:103B6000C910A5EBC101491C01F0FF0862480068BB
:103B700020B16148414602683846904700BF6078EE
:103B800000F0080030B15C48406818B1B0115A4AE2
:103B9000516888470020BDE8F08110B586B0044622
:103BA00056A207CA03AB07C357A207CA8DE807008E
:103BB000012C09D0022C0ED103AA0B2140F6822041
:103BC000FEF78EFE06B010BD6A460B2140F682203D
:103BD000FEF786FEF6E74FF0FF30F3E72DE9F04FF2
:103BE0008DB00746884615469946DDE9166B0024D8
:103BF000002030804049887B5A4605A9FEF7D3F95A
:103C000018B1601E0DB0BDE8F08F3B48807A00F01F
:103C10001400002861D09DF8140000069DF81510CE
:103C200040EA01409DF8161040EA01209DF8171067
:103C3000084328609DF8180000069DF8191040EA16
:103C400001409DF81A1040EA01209DF81B1008431E
:103C500068609DF81C0000069DF81D1040EA0140B8
:103C60009DF81E1040EA01209DF81F100843A8602F
:103C70009DF8200000069DF8211040EA01409DF8C3
:103C8000221040EA01209DF823100843E86004F167
:103C90001000C4B2286800140190686800140290F3
:103CA000A86800140390E868001404900198404349
:103CB000029901FB0100039901FB0100049901FB3A
:103CC000010ABAF1706F02DBBAF1885F22DDFDF7FD
:103CD00061FA00203080401E94E721E0B8AAB38D3D
:103CE000B4980D355D000000B8AAAAAAB088C3C573
:103CF000C700000009E3CA0220060020D8B1B9F3CA
:103D00008BA391B609B4D900DAB1B9F38BA391B6FC
:103D1000DAB4DA00B6F9000040F48070308000BFF9
:103D20003448807A00F0400020B305A9601C085C8C
:103D3000095D40EA012000B2A8F8000005A9E01CD6
:103D4000095C05AAA01C105C41EA002000B2A8F89A
:103D5000020005A9601D095C201D105C41EA0020DD
:103D600000B2A8F80400A01DC4B2B6F9000040F0EB
:103D7000080030801F48408900F4C07008B305A9CE
:103D8000601C085C095D40EA012000B2388005A98A
:103D9000E01C095C05AAA01C105C41EA002000B2EE
:103DA000788005A9601D095C201D105C41EA002097
:103DB00000B2B880A01DC4B2B6F9000040F0700097
:103DC00030800C48807A00F0030018B105A908196A
:103DD000FFF7B4FE4846FDF74AFD002012E7014612
:103DE00004480160002070470146024841600020FD
:103DF0007047000020060020002100E0491C81429D
:103E0000FCD3704710B50121F84801F0C8F8022131
:103E1000F64801F0C4F80221F44801F0C2F801218B
:103E2000F24801F0BEF810BD10B50121EF4801F0D5
:103E3000B6F80221ED4801F0B4F80221EB4801F098
:103E4000AEF810BD10B50121E84801F0A8F8012135
:103E5000E64801F0A6F810BD2DE9F04105462C46D4
:103E60000121E24801F09DF8002619E0274607F0FD
:103E70008007802F04D10221DC4801F090F803E094
:103E80000221DA4801F08DF86006040E0121D748BE
:103E900001F085F80121D54801F083F8701CC6B205
:103EA000082EE3DBBDE8F08110B50446FFF7AAFF5A
:103EB0007820FFF7D1FFFFF7C5FF0020FFF7CCFF09
:103EC000FFF7C0FF2046FFF7C7FFFFF7BBFFFFF775
:103ED000ABFF10BD10B50446FFF794FF7820FFF745
:103EE000BBFFFFF7AFFF4020FFF7B6FFFFF7AAFFCA
:103EF0002046FFF7B1FFFFF7A5FFFFF795FF10BDC5
:103F000070B504460D461DB1E0B2FFF7E3FF02E0D5
:103F1000E0B2FFF7C9FF70BD70B50646002418E097
:103F200004F1B0000021FFF7EBFF00210846FFF786
:103F3000E7FF00211020FFF7E3FF002505E0012146
:103F40003046FFF7DDFF681CC5B2802DF7DB601C33
:103F5000C4B2082CE4DB70BD06E041F6650100E068
:103F6000491E0029FCD1401E0028F6D170470146A9
:103F700005E0002001E0421CD0B27B28FBDB0A00F8
:103F8000A1F10101F5D1704770B504460D4605F168
:103F9000B0000021FFF7B4FF102141EA1410002106
:103FA000FFF7AEFF04F00F000021FFF7A9FF70BD7F
:103FB00010B500218D20FFF7A3FF00211420FFF78B
:103FC0009FFF0021AF20FFF79BFF10BD10B5002120
:103FD0008D20FFF795FF00211020FFF791FF0021B2
:103FE000AE20FFF78DFF10BD70B5002418E004F17E
:103FF000B0000021FFF784FF00210846FFF780FF93
:1040000000211020FFF77CFF002505E001210020A2
:10401000FFF776FF681CC5B2802DF7DB601CC4B2C9
:10402000082CE4DB70BD70B5002418E004F1B0008A
:104030000021FFF765FF00210846FFF761FF00211F
:104040001020FFF75DFF002505E001210846FFF77E
:1040500057FF681CC5B2802DF7DB601CC4B2082C6A
:10406000E4DB70BD2DE9F04707460E4690469946C1
:1040700000250024A8F12000C5B27F2F02DD002713
:10408000B01CC6B2B9F1100F24D131463846FFF743
:104090007BFF002408E004EB0511554A505C012128
:1040A000FFF72EFF601CC4B2082CF4DB701CC1B2F9
:1040B0003846FFF769FF002409E004EB05110831D9
:1040C0004B4A505C0121FFF71BFF601CC4B2082C57
:1040D000F3DB12E031463846FFF756FF00240AE0D2
:1040E00005EB4501434A02EB4101085D0121FFF761
:1040F00007FF601CC4B2062CF2DBBDE8F08710B5E8
:104100000246012000E050430B00A1F10104E1B29E
:10411000F9D110BD2DE9FF5F074691461E460E9D61
:104120004FF0000A002435E0301B401EC1B20A20C7
:10413000FFF7E5FFB9FBF0F00A21B0FBF1F201FB5C
:104140001208BAF1000F14D1701EA04211DDB8F1AF
:10415000000F0CD1AB4605EBDB71491001FB04717C
:10416000C8B22B4620220199FFF77CFF10E04FF0E8
:10417000010AAB4605EBDB71491001FB0471C8B2C3
:1041800008F13001CAB22B460199FFF76BFF00BF5F
:10419000601CC4B2B442C7DBBDE8FF9F2DE9F0410B
:1041A00005460E4614461F460EE022783B46314631
:1041B0002846FFF757FF05F10800C5B2782D02DD4C
:1041C0000025B01CC6B2641C20780028EDD1BDE8E3
:1041D000F0812DE9F04180460F4615461E463946CE
:1041E0004046FFF7D1FE00240EE000000008014029
:1041F0002A7E0008027C000806EB4511085D0121BB
:10420000FFF77EFE601CC4B2102CF5DB781CC1B237
:104210004046FFF7B9FE002409E06900491C06EB9F
:104220000111085D0121FFF76BFE601CC4B2102C68
:10423000F3DBBDE8F0812DE9F05F06460F469046BE
:104240001C46DDF828A04FF0000BE11704EB51717C
:10425000C910A4EBC10131B92046E11704EB51713B
:10426000C1F3C70506E02046E11704EB5171C91000
:10427000491CCDB23D4615E029463046FFF784FE85
:10428000B1460BE059460BF1010B1AF80100012170
:10429000FFF736FE09F1010000F0FF09C145F1DB2F
:1042A000681CC5B2A542E7DBBDE8F09F2DE9FF5FC2
:1042B00086B014461D464FF0010A0020039004907A
:1042C00005904FF00109002600BF834600221346E7
:1042D0002046294601F08CFE09D285F00040CDE948
:1042E00000402046019901F038FE064604E02046D1
:1042F000294601F032FE0646304601F0E3FD224633
:104300002B46CDE9000101F0EBFC07468846002270
:10431000FE4B3846414601F0E6FCCDE9000101F0D4
:104320003BFE834607E009EB89004FEA40090AF1AA
:10433000010000F0FF0A0A2096FBF0F090FBF9F074
:104340000028F0D142F2107096FBF0F00A2190FBA9
:10435000F1F201FB1200C0B28DF80C004FF47A703C
:1043600096FBF0F090FBF1F201FB1200C0B28DF869
:104370000D00642096FBF0F090FBF1F201FB1200BF
:10438000C0B28DF80E000A2096FBF0F090FBF1F21F
:1043900001FB1200C0B28DF80F000A2096FBF0F16D
:1043A00000FB1160C0B28DF810002E208DF81100B6
:1043B0004FF47A70BBFBF0F00A21B0FBF1F201FB85
:1043C00012008DF812006420BBFBF0F0B0FBF1F29C
:1043D00001FB12008DF813000A20BBFBF0F0B0FBCC
:1043E000F1F201FB12008DF814000A20BBFBF0F182
:1043F00000FB11B08DF8150000211498801D03AA50
:104400001154894608E003A810F80900303003A9C8
:1044100001F8090009F10109B9F10A0FF3DB0022E3
:1044200013462046294601F0E3FD08D20AF10100B7
:1044300000F0FF0A2D20CAF1050103AA50542E20D6
:104440008DF8110000211498801D03AA1154CAF19F
:10445000050003A942181023DDE90610FFF79EFEB0
:104460000AB0BDE8F09F2DE9F04F89B08246894639
:1044700017469846DDF84CB00120079000200490C4
:10448000059006900124002500BF00264FEAC96070
:104490004FEA10693846414601F05FFD054628465F
:1044A00001F021FD3A464346CDE9000101F018FC38
:1044B000CDE902010022954BDDE9020101F013FC78
:1044C000CDE9000101F068FD064606E004EB84003A
:1044D00044000798401CC0B207900A20B5FBF0F0DA
:1044E000B0FBF4F00028F1D142F21070B5FBF0F00F
:1044F0000A21B0FBF1F201FB12008DF810004FF41D
:104500007A70B5FBF0F0B0FBF1F201FB12008DF810
:1045100011006420B5FBF0F0B0FBF1F201FB1200DA
:104520008DF812000A20B5FBF0F0B0FBF1F201FBB0
:1045300012008DF813002E208DF815004FF47A70BC
:10454000B6FBF0F0B0FBF1F201FB12008DF81600A3
:104550006420B6FBF0F0B0FBF1F201FB12008DF825
:1045600017000A20B6FBF0F0B0FBF1F201FB1200DD
:104570008DF818000A20B6FBF0F100FB11608DF8F1
:10458000190000210BF1060004AA1154002405E0D3
:1045900004A8005D303004A90855641C0A2CF7DB20
:1045A0002E208DF8150000210BF1060004AA1154ED
:1045B0001298C0F1050004A942180C235146484640
:1045C000FFF7ECFD09B0BDE8F08F2DE9F04105469D
:1045D0000F46164600BF05EB45014906080E394651
:1045E000FFF7D2FC00240BE006F1100101EB4101C2
:1045F000474A02EB4101085D0121FFF781FC641C81
:10460000062CF1DBBDE8F0812DE9F04105460F46AF
:10461000164600BF05EB45014906080E3946FFF76F
:10462000B3FC002409E006EB4601394A02EB4101E4
:10463000085D0121FFF764FC641C062CF3DBBDE878
:10464000F0812DE9F0470546894616463446002C90
:1046500022DA6442642094FBF0F100FB11400A214D
:1046600090FBF1F0C7B20A2094FBF0F100FB11407F
:1046700000F0FF080D2249462846FFF7C5FF691CD8
:10468000C8B23A464946FFF7A0FFA91CC8B2424645
:104690004946FFF79AFF20E0642094FBF0F100FB0D
:1046A00011400A2190FBF1F0C7B20A2094FBF0F10F
:1046B00000FB114000F0FF080B2249462846FFF797
:1046C000A3FF691CC8B23A464946FFF77EFFA91C02
:1046D000C8B242464946FFF778FFBDE8F0872DE9AA
:1046E000F04705468A4616463446002C33DA6442C3
:1046F0000D2251462846FFF787FF0A2094FBF0F170
:1047000000FB1140C7B20A2004E000000088C3404B
:10471000027C000894FBF0F00A2190FBF1F201FB0F
:10472000120000F0FF08642094FBF0F000F0FF0995
:10473000E91CC8B23A465146FFF747FFA91CC8B268
:1047400042465146FFF741FF691CC8B24A465146EE
:10475000FFF73BFF2BE00B2251462846FFF754FFA3
:104760000A2094FBF0F100FB1140C7B20A2094FB31
:10477000F0F00A2190FBF1F201FB120000F0FF08BB
:10478000642094FBF0F000F0FF09E91CC8B23A463F
:104790005146FFF71AFFA91CC8B242465146FFF71F
:1047A00014FF691CC8B24A465146FFF70EFFBDE828
:1047B000F0872DE9F05F05468B4616463446002CFF
:1047C00000DA64424FF47A7094FBF0F0C7B24FF411
:1047D0007A7094FBF0F100FB1140642190FBF1F042
:1047E00000F0FF08642094FBF0F100FB11400A2167
:1047F00090FBF1F000F0FF090A2094FBF0F100FBC0
:10480000114000F0FF0A3A4659462846FFF7DDFE00
:10481000691CC8B242465946FFF7D7FEA91CC8B268
:104820004A465946FFF7D1FEE91CC8B252465946DE
:10483000FFF7CBFEBDE8F09F2DE9F05F05460E4681
:10484000144642F21070B4FBF0F0C7B242F210709E
:10485000B4FBF0F100FB11404FF47A71B0FBF1F0C2
:1048600000F0FF080846B4FBF0F100FB11406421A2
:10487000B0FBF1F000F0FF096420B4FBF0F100FBA5
:1048800011400A21B0FBF1FA0A20B4FBF0F100FB61
:10489000114B3A4631462846FFF797FE691CC8B2CD
:1048A00042463146FFF791FEA91CC8B24A4631463E
:1048B000FFF78BFEE91CC8B252463146FFF785FE72
:1048C000291DC8B25A463146FFF77FFEBDE8F09F6A
:1048D00008B50121052000F071FD0121954800F087
:1048E00082FB0320ADF8000010208DF803000320A8
:1048F0008DF802006946904800F0A4FA03218E4822
:1049000000F04DFB44F62060FFF776FA0021AE2060
:10491000FFF7F6FA00210846FFF7F2FA002110200F
:10492000FFF7EEFA00214020FFF7EAFA0021B0205D
:10493000FFF7E6FA00218120FFF7E2FA0021FF20CD
:10494000FFF7DEFA0021A120FFF7DAFA0021A62006
:10495000FFF7D6FA0021A820FFF7D2FA00213F2066
:10496000FFF7CEFA0021C820FFF7CAFA0021D320B2
:10497000FFF7C6FA00210846FFF7C2FA0021D5204A
:10498000FFF7BEFA00218020FFF7BAFA0021D820F5
:10499000FFF7B6FA00210520FFF7B2FA0021D9206F
:1049A000FFF7AEFA0021F120FFF7AAFA0021DA2082
:1049B000FFF7A6FA00211220FFF7A2FA0021DB2060
:1049C000FFF79EFA00213020FFF79AFA00218D2090
:1049D000FFF796FA00211420FFF792FA0021AF208A
:1049E000FFF78EFA08BD10B5544B00221146142073
:1049F000FFF7EFFB514B012200212420FFF7E9FBD9
:104A00004E4B022200213420FFF7E3FB4B4B0322E5
:104A100000214420FFF7DDFB484B042200215420F5
:104A2000FFF7D7FB454B052202210020FFF7D1FB02
:104A3000424B062202211020FFF7CBFB10BD10B520
:104A40003F4B002202211046FFF7C3FB4FF4FA60F0
:104A5000FFF7D2F93A4B012202211020FFF7B9FBF0
:104A60004FF4FA60FFF7C8F9354B022211462020B7
:104A7000FFF7AFFB4FF4FA60FFF7BEF9304B0322AC
:104A800002213020FFF7A5FB4FF4FA60FFF7B4F9DD
:104A90002B4B042202214020FFF79BFB4FF4FA60CE
:104AA000FFF7AAF9264B052202215020FFF791FBC0
:104AB0004FF4FA60FFF7A0F9214B062204210020F1
:104AC000FFF787FB4FF4FA60FFF796F91C4B0722BC
:104AD00004211020FFF77DFB4FF4FA60FFF78CF9FB
:104AE000174B082204212020FFF773FB4FF4FA60D4
:104AF000FFF782F9124B092204213020FFF769FBEE
:104B00004FF4FA60FFF778F90D4B0A220421402098
:104B1000FFF75FFB4FF4FA60FFF76EF9084B0B22CB
:104B200004215020FFF755FB4FF4FA60FFF764F9BA
:104B300010BD00000002300000080140E903002021
:104B40006904002010B56FF0040000F0EEFE2E485E
:104B500000682E49B0FBF1F02D4908700846007836
:104B600000EB4001C1EBC0104FF6FF7101EAC0003D
:104B70002849088010BD0146254A12784A434FF063
:104B8000E0235A6100229A611A46126942F001023A
:104B90001A6100BF4FF0E022106900F001021AB163
:104BA00000F48032002AF5D04FF0E022126922F0A2
:104BB00001024FF0E0231A6100229A61704701461A
:104BC000144A12884A434FF0E0235A6100229A6146
:104BD0001A46126942F001021A6100BF4FF0E0224A
:104BE000106900F001021AB100F48032002AF5D0F9
:104BF0004FF0E022126922F001024FF0E0231A6127
:104C000000229A61704700002000002000127A0004
:104C1000FA050020FC050020014600BF704700BFD8
:104C20004B4A128802F04002002AF9D0C2B2484B27
:104C30001B1D1A80704710B586B00446012144F24E
:104C4000040000F0BBFB424800F01CFC4FF4007075
:104C5000ADF8140003208DF8160018208DF8170009
:104C600005A93C4800F0EEF84FF48060ADF8140060
:104C700004208DF8170005A9364800F0E3F8252038
:104C80008DF8000003208DF801008DF8020001204E
:104C90008DF80300684600F0FEFD01940020ADF899
:104CA0000800ADF80A00ADF80C00ADF810000C20BB
:104CB000ADF80E0001A9264800F027FC012240F2C1
:104CC0002551234800F0B9FC0121214800F0A9FC3E
:104CD00006B010BD10B540F225511D4800F092FD00
:104CE00010B31B4800F00EFDC4B21B48008800F44E
:104CF0000040C8B91848008800F4804060B10A2C10
:104D000003D000201449088020E01348008840F4B4
:104D100000401149088019E00D2C06D10E4800888A
:104D200040F480400C49088010E00B480088C0F334
:104D30000D000A490C5408480088401C06490880A8
:104D400008460088C72801DD0020088010BD00004B
:104D50000038014000080140040600203006002011
:104D60000648804706480047FEE7FEE7FEE7FEE705
:104D7000FEE7FEE7FEE7FEE7FEE7FEE78F06000838
:104D8000ED00000810B50446CC48844208D101214A
:104D9000042000F02DFB0021042000F029FB46E058
:104DA000C748844208D10121082000F021FB0021DE
:104DB000082000F01DFB3AE0C248844208D10121DE
:104DC000102000F015FB0021102000F011FB2EE058
:104DD000BD48844208D10121202000F009FB0021B8
:104DE000202000F005FB22E0B848844208D10121D0
:104DF000402000F0FDFA0021402000F0F9FA16E012
:104E0000B348844208D10121802000F0F1FA00214A
:104E1000802000F0EDFA0AE0AE48844207D101217B
:104E2000801500F0E5FA0021A01500F0E1FA10BDB0
:104E300010B50121084600F0DBFA0021012000F046
:104E4000D7FA10BD2DE9F0410246002500260020CA
:104E500000230024002791F803C00CF00F0591F8FF
:104E600003C00CF0100CBCF1000F03D091F802C08D
:104E70004CEA050591F800C0BCF1000F31D0146870
:104E800000202BE04FF0010C0CFA00F3B1F800C049
:104E90000CEA03069E4220D183004FF00F0C0CFA5F
:104EA00003F7BC4305FA03FC4CEA040491F803C081
:104EB000BCF1280F06D14FF0010C0CFA00FCC2F82F
:104EC00014C00AE091F803C0BCF1480F05D14FF0BF
:104ED000010C0CFA00FCC2F810C0401C0828D1D309
:104EE0001460B1F800C0BCF1FF0F34DD546800203D
:104EF0002EE000F1080C4FF0010808FA0CF3B1F8AD
:104F000000C00CEA03069E4221D183004FF00F0C33
:104F10000CFA03F7BC4305FA03FC4CEA040491F8CD
:104F200003C0BCF1280F05D100F1080C08FA0CF8F9
:104F3000C2F8148091F803C0BCF1480F07D100F10A
:104F4000080C4FF0010808FA0CF8C2F81080401C59
:104F50000828CED35460BDE8F0814FF6FF71018080
:104F6000022181700421C1707047024600209368BD
:104F70000B400BB1012000E000207047014688681B
:104F800080B2704702460020D3680B400BB101206D
:104F900000E0002070470146C86880B27047016198
:104FA0007047416170470AB1016100E0416170479B
:104FB000C16070474FF480320A438261816182612F
:104FC00082698269704702460020434B18684FF699
:104FD0008073184040EA021008433F4B1860704746
:104FE0003E49C8617047F0B50A46002300240021FD
:104FF000002500F00046B6F1004F02D1364EF169AF
:1050000001E0354E7168C0F3034583B200F44016E9
:10501000B6F5401F08D121F070612F4E766826F05A
:1050200070662D4F7E6012E000F48016B6F5801F8A
:1050300006D1032606FA05F4A14341F0706106E0AB
:10504000460D360103FA06F6B14341F0706122B114
:10505000460D360103FA06F6314300F00046B6F17C
:10506000004F02D11C4EF16101E01B4E7160F0BD9A
:1050700030B500228B071C0F0F2303FA04F2164BE6
:1050800008338C1053F824309343134C08348D109C
:1050900044F8253023468C1053F824308C07240F15
:1050A00000FA04F423430C4C08348D1044F82530E6
:1050B00030BD0A49DC31086070470000000801403B
:1050C000000C014000100140001401400018014094
:1050D000001C01400020014000000140000020426F
:1050E000DF48006840F00100DD490860084640687C
:1050F000DC490840DA49486008460068DA49084057
:10510000D74908600846006820F4802008600846F7
:10511000406820F4FE0048604FF41F00886070472C
:10512000CF49096821F48031CD4A116011460968E0
:1051300021F480211160B0F5803F03D0B0F5802FBD
:105140000ED106E0C649096841F48031C44A1160B5
:1051500007E0C349096841F4A021C14A116000E099
:1051600000BF00BF704710B5014600220023002099
:105170004A11012A02D1BA4C236806E0022A02D160
:10518000B74C236A01E0B64C636A01F01F020124A8
:1051900094401C400CB1012000E0002010BD38B547
:1051A000002000900024002500BF3120FFF7DBFF26
:1051B00005460098401C00900098B0F5A06F01D003
:1051C000002DF2D03120FFF7CEFF08B1012400E01E
:1051D0000024204638BD01460020A14A106820F076
:1051E000F80040EAC10010607047A04908607047AD
:1051F000024600209A4B586820F47C1042EA0103D2
:105200001843974B586070479849086670470146A5
:105210000020934A506820F0030008435060704714
:105220008F48406800F00C007047014600208C4A0F
:10523000506820F0F000084350607047014600209D
:10524000874A506820F4E060084350607047014688
:105250000020834A506820F4605040EAC10050604A
:10526000704729B17E4A527A02437D4B5A7204E05C
:105270007B4A527A82437A4B5A7270477B49D831C3
:105280000860704701460020754A506820F440408D
:105290000843506070470021714A20321170704AF3
:1052A00082F82010012802D004280AD104E001214C
:1052B0006B4A2032117005E00521694A20321170D5
:1052C00000E000BF00BF704769490860704764494B
:1052D000096A0143624A11627047654944390860AE
:1052E000704730B500210022002400235C4D6D681A
:1052F00005F00C0121B1042905D0082923D105E0CE
:105300005C4D056022E05B4D05601FE0544D6D680B
:1053100005F47012524D6D6805F48034022505EBDA
:1053200092421CB9544D554305600BE04C4D6D68DD
:1053300005F400351DB1504D5543056002E04D4D5B
:105340005543056002E04B4D056000BF00BF444D72
:105350006D6805F0F0010909484D6B5C0568DD409A
:1053600045603F4D6D6805F4E061090A434D6B5C93
:105370004568DD4085603A4D6D6805F46051C90AA5
:105380003E4D6B5C4568DD40C560354D6D6805F48C
:105390004041890B3A4D6B5CC568B5FBF3F505617F
:1053A00030BD29B12E4A526902432D4B5A6104E0A7
:1053B0002B4A526982432A4B5A61704729B1284AC5
:1053C00092690243264B9A6104E0254A926982431E
:1053D000234B9A61704729B1214AD2690243204B7D
:1053E000DA6104E01E4AD26982431D4BDA617047DC
:1053F00029B11B4AD2680243194BDA6004E0184A0B
:10540000D2688243164BDA60704729B1144A126998
:105410000243134B1A6104E0114A12698243104B94
:105420001A61704712494039086070470F49C864D3
:1054300070470B49C87170470948406A40F0807056
:1054400007494862704701460020054A92680A40B1
:105450000AB1012000E000207047014988727047BE
:10546000001002400000FFF8FFFFF6FE000042427D
:105470008004424200127A0000093D000606002026
:105480001606002010B50446FB48844209D10121CC
:105490008803FFF7ADFF00214FF48040FFF7A8FF1E
:1054A00032E0F648844209D101214804FFF7ADFFFC
:1054B00000214FF40030FFF7A8FF25E0F0488442B8
:1054C00009D101218804FFF7A0FF00214FF48020BB
:1054D000FFF79BFF18E0EB48844209D10121C80483
:1054E000FFF793FF00214FF40020FFF78EFF0BE042
:1054F000E548844208D101210805FFF786FF002115
:105500004FF48010FFF781FF10BD2DE9F04786B002
:1055100005460E460024A24600BFA1460027B089DA
:1055200000B100BF2F462C8A4CF6FF700440F08873
:1055300004432C82AC894EF6F3100440B0883189C4
:105540000843718908430443AC81AC8A4FF6FF409D
:105550000440B0890443AC8201A8FFF7C2FEC648EC
:10556000874202D1DDF810A001E0DDF80CA0A88987
:1055700000F4004040B10AEBCA0000EB0A103168A9
:105580004900B0FBF1F807E00AEBCA0000EB0A1093
:1055900031688900B0FBF1F86420B8FBF0F0040139
:1055A0002009642101FB1089A88900F4004040B162
:1055B000322000EBC900B0FBF1F000F0070004431B
:1055C00008E0322000EB09106421B0FBF1F000F09C
:1055D0000F0004432C8106B0BDE8F0874FF416514C
:1055E000016000218180C18001810C214181002165
:1055F0008181704710B502460020108A4FF2FF03E8
:1056000018400B884C8823438C882343CC88234341
:105610001843108210BD0021018041808180C1802B
:10562000704721B1828942F40052828104E082896C
:105630004DF6FF731A4082817047F0B5034600248F
:1056400000260025002040F66A17B94200D100BFAD
:105650001846C1F3421401F01F06012707FA06F5A8
:10566000012C01D10C3004E0022C01D1103000E0FB
:1056700014301AB107682F43076002E00768AF4390
:105680000760F0BD1AB1838A0B43838202E0838AEC
:105690008B4383827047028A4FF6F0731A4002826E
:1056A000028A0A430282704782894FF2FF731A40CE
:1056B000828182890A438281704721B1828942F0C6
:1056C0000202828104E082894FF6FD731A408281D2
:1056D0007047028A4FF6DF731A400282028A0A4339
:1056E0000282704721B1028A42F48042028204E0C1
:1056F000028A4BF6FF731A4002827047C1F3080218
:105700008280704701468888C0F30800704781890D
:1057100041F0010181817047028BD2B20283028B7A
:1057200042EA012202837047028B02F47F42028325
:10573000028B0A430283704721B1828A42F0200221
:10574000828204E0828A4FF6DF731A4082827047B9
:1057500021B1828A42F01002828204E0828A4FF6EE
:10576000EF731A408282704721B1828A42F00802A8
:10577000828204E0828A4FF6F7731A408282704771
:1057800021B1828942F40042828103E08289C2F31E
:105790000E028281704721B1828A42F400628282C5
:1057A00004E0828A4FF2FF731A4082827047828A35
:1057B0004FF6FB731A408282828A0A4382827047C4
:1057C00021B1828A42F00202828204E0828A4FF68C
:1057D000FD731A408282704702460020B1F5007FB7
:1057E00000D100BF13880B400BB1012000E0002066
:1057F000704701F40072B2F5007F00D100BFCA43C8
:105800000280704770B50246002400230025002066
:1058100040F66A16B14200D100BFC1F3421501F053
:105820001F03012606FA03F3012D02D196893340A6
:1058300006E0022D02D1168A334001E0968A3340F9
:105840000C12012606FA04F41688344013B10CB188
:10585000012000E0002070BD10B50022002340F6BA
:105860006A14A14200D100BF0A1201249440A3B2DD
:10587000DC43048010BD00000038014000440040BB
:1058800000480040004C00400050004031490143B6
:10589000314A1160704770B5002100230F22C4788F
:1058A00004B32D4C246804F4E064C4F5E064210AD8
:1058B000C1F10403CA40447804FA03F18478144027
:1058C00021430901254C0678A155047804F01F05F1
:1058D0000124AC4005786D11AD0005F1E025C5F857
:1058E000004109E0047804F01F050124AC401C4D80
:1058F0000678761145F8264070BD1A4A0A400243E0
:10590000154B1B1F1A60704739B1134A121D1268DC
:105910000243114B1B1D1A6006E00F4A121D12684C
:1059200082430D4B1B1D1A607047042808D14FF0AD
:10593000E021096941F004014FF0E022116107E024
:105940004FF0E021096921F004014FF0E0221161DC
:10595000704700000000FA050CED00E000E400E0F4
:1059600080E100E080FFFF1F2DE9F0410024061BCD
:10597000254671F1000605DA01240027D0EB070067
:1059800067EB0101161E73F1000605DA0027D2EB62
:105990000702012567EB030300F072FB86460E4603
:1059A00017469C46AC4204D00025D0EB050E65EBB3
:1059B000010624B10020D2EB000760EB030C704617
:1059C00031463A466346BDE8F081D2B201E000F8C4
:1059D000012B491EFBD270470022F6E710B5134693
:1059E0000A4604461946FFF7F0FF204610BD30B5C1
:1059F00004460020034600E05B1C934203D2E05CB7
:105A0000CD5C401BF8D030BDF0B480EA0102D40F69
:105A10004200B2EB410F02D20246084611464A004C
:105A200042D0C30DDDB2C1F3C752AD1A202D35DA15
:105A3000C1F3160141F4000204B15242C5F120063F
:105A400002FA06F12A411044B3EBD05F23D0C4B16F
:105A5000012DA0EBC35009DCF0BC4FF0004202EA7C
:105A6000C352DBB200F5000000F075BB400000F14E
:105A7000807000EBC350A0F1807040EAD170490003
:105A800009E0490841EAC071A0EBC35000F50000ED
:105A9000400800EBC350F0BC00F054BB614201224F
:105AA00002EB4101001BF6E7F0BC704781F00041BA
:105AB000AAE780F00040A7E780EA010210B502F0F3
:105AC0000043400022D04A001FD0010E01EB1261BA
:105AD000C0F35600C2F3560240F4000042F4000244
